:100000000C944A290C9470290C94F9320C947029A0
:100010000C9470290C9470290C94676D0C94B46D39
:100020000C94016E0C944E6E0C94236F0C94536FD1
:100030000C9470290C9470290C94769F0C94CD9F8D
:100040000C9424A00C947BA00C94D2A00C9429A115
:100050000C9480A10C94D7A10C942EA20C9485A290
:100060000C9470290C9470290C9470290C947029AC
:100070000C9470290C9470290C9470290C9470299C
:100080000C9470290C9470290C949A320C94702959
:100090000C9470290C9470290C9470290C9475930D
:1000A0000C9401940C948D940C9419950C947029D3
:1000B0000C9470290C9470290C9470290C9442A60D
:1000C0000C9499A60C94F0A60C9447A70C949EA7A8
:1000D0000C94F5A70C944CA80C94A3A80C94FAA823
:1000E0000C9451A90C9470290C9470290C947029CB
:1000F0000C9470290C9470290C9470290C9470291C
:100100000C9470290C9470290C9470290C9470290B
:100110000C9470290C9470290C9470290C944591BE
:100120000C94D1910C945D920C94E9920C947029EA
:100130000C9470290C94DCA20C9433A30C948AA325
:100140000C94E1A30C9438A40C948FA40C94E6A412
:100150000C943DA50C9494A50C94EBA50C947029DB
:100160000C9470290C9470290C9470290C947029AB
:100170000C9470290C9470290C9470290C9470299B
:100180000C9470290C9470290C9470290C9470298B
:100190000C9470290C9470290C9470290C9470297B
:1001A0000C9470290C9470290C9470290C9470296B
:1001B0000C94A8A90C94FFA90C9456AA0C94ADAA6F
:1001C0000C9404AB0C945BAB0C94B2AB0C9409ACE8
:1001D0000C9460AC0C94B7AC0C9470290C947029FE
:1001E0000C9470290C9470290C9470290C9470292B
:1001F0000C9470290C9409740C94C3748941DB41EC
:1002000033430D444B444045D4477654D148E049EC
:10021000B84B76543A4D7D4E2D4F994FE04F7F505D
:1002200068518852CE527A53C356CA56D156D856C0
:10023000145750578F57647967796A796D79707957
:100240007379767931B252B273B294B2B5B2D6B292
:10025000F7B218B34E414E494E495459494E46CD16
:10026000CCCC3D0AD7233C17B7D13877CC2B32956D
:1002700095E6241FB14F0A000020410000C842004B
:10028000401C4620BCBE4CCA1B0E5AAEC59D7460B5
:10029000055C05570553054F054A05460542053ED1
:1002A000053A05360532052E052A05260523051FC4
:1002B000051B051805140510050D050905060502A1
:1002C00005FF04FB04F804F504F104EE04EB04E874
:1002D00004E404E104DE04DB04D804D504D204CF32
:1002E00004CC04C904C604C304C004BD04BA04B7E2
:1002F00004B504B204AF04AC04AA04A704A404A285
:10030000049F049C049A049704940492048F048D1F
:10031000048A0488048504830481047E047C0479AF
:100320000477047504720470046E046B0469046736
:10033000046504620460045E045C045904570455B7
:1003400004530451044F044D044B04480446044430
:1003500004420440043E043C043A043804360434A5
:1003600004320430042E042D042B04290427042510
:1003700004230421041F041D041C041A0418041679
:10038000041404130411040F040D040C040A0408DB
:10039000040604050403040104FF03FE03FC03FA3E
:1003A00003F903F703F503F403F203F103EF03ED9D
:1003B00003EC03EA03E903E703E503E403E203E1F3
:1003C00003DF03DE03DC03DB03D903D703D603D447
:1003D00003D303D103D003CF03CD03CC03CA03C996
:1003E00003C703C603C403C303C103C003BF03BDE4
:1003F00003BC03BA03B903B803B603B503B403B22D
:1004000003B103AF03AE03AD03AB03AA03A903A774
:1004100003A603A503A403A203A103A0039E039DB7
:10042000039C039A039903980397039503940393FA
:1004300003920390038F038E038D038C038A038939
:100440000388038703850384038303820381037F77
:10045000037E037D037C037B037A037803770376B3
:1004600003750374037303720370036F036E036DEC
:10047000036C036B036A0369036803660365036423
:100480000363036203610360035F035E035D035C58
:10049000035A035903580357035603550354035390
:1004A000035203510350034F034E034D034C034BC0
:1004B000034A0349034803470346034503440343F0
:1004C000034203410340033F033E033D033C033B20
:1004D000033A033903380337033603350334033350
:1004E000033203310330032F032E032E032D032C7D
:1004F000032B032A032903280327032603250324A8
:1005000003230322032103210320031F031E031DD2
:10051000031C031B031A03190319031803170316FB
:100520000315031403130312031103110310030F24
:10053000030E030D030C030B030B030A030903084B
:100540000307030603050305030403030302030172
:100550000300030003FF02FE02FD02FC02FC02FB9B
:1005600002FA02F902F802F702F702F602F502F4C3
:1005700002F302F302F202F102F002EF02EF02EEE6
:1005800002ED02EC02EB02EB02EA02E902E802E809
:1005900002E702E602E502E402E402E302E202E12B
:1005A00002E102E002DF02DE02DE02DD02DC02DB4B
:1005B00002DB02DA02D902D802D802D702D602D56B
:1005C00002D502D402D302D202D202D102D002D08A
:1005D00002CF02CE02CD02CD02CC02CB02CA02CAA9
:1005E00002C902C802C802C702C602C502C502C4C7
:1005F00002C302C302C202C102C102C002BF02BEE4
:1006000002BE02BD02BC02BC02BB02BA02BA02B9FF
:1006100002B802B802B702B602B602B502B402B31B
:1006200002B302B202B102B102B002AF02AF02AE37
:1006300002AD02AD02AC02AB02AB02AA02A902A952
:1006400002A802A702A702A602A602A502A402A46B
:1006500002A302A202A202A102A002A0029F029E85
:10066000029E029D029D029C029B029B029A02999D
:1006700002990298029702970296029602950294B6
:100680000294029302920292029102910290028FCE
:10069000028F028E028E028D028C028C028B028AE5
:1006A000028A0289028902880287028702860286FC
:1006B0000285028402840283028302820281028113
:1006C00002800280027F027E027E027D027D027C29
:1006D000027C027B027A027A02790279027802773E
:1006E0000277027602760275027502740273027353
:1006F00002720272027102710270026F026F026E68
:10070000026E026D026D026C026B026B026A026A7B
:10071000026902690268026802670266026602658F
:1007200002650264026402630263026202610261A2
:1007300002600260025F025F025E025E025D025DB5
:10074000025C025B025B025A025A025902590258C9
:1007500002580257025702560256025502540254DA
:1007600002530253025202520251025102500250ED
:10077000024F024F024E024E024D024D024C024CFD
:10078000024B024A024A0249024902480248024711
:100790000247024602460245024502440244024321
:1007A0000243024202420241024102400240023F31
:1007B000023F023E023E023D023D023C023C023B41
:1007C000023B023A023A0239023902380238023751
:1007D0000237023602360235023502340234023361
:1007E0000233023202320231023102300230022F71
:1007F000022F022E022E022D022D022C022C022B81
:10080000022B022A022A022902290228022802288F
:10081000022702270226022602250225022402249C
:1008200002230223022202220221022102200220AC
:10083000021F021F021F021E021E021D021D021CB9
:10084000021C021B021B021A021A021902190218C8
:1008500002180218021702170216021602150215D4
:1008600002140214021302130212021202120211E3
:10087000021102100210020F020F020E020E020DF0
:10088000020D020D020C020C020B020B020A020AFC
:100890000209020902090208020802070207020609
:1008A0000206020502050204020402040203020316
:1008B000020202020201020102010200020002FF22
:1008C00001FF01FE01FE01FD01FD01FD01FC01FC36
:1008D00001FB01FB01FA01FA01FA01F901F901F842
:1008E00001F801F701F701F701F601F601F501F54D
:1008F00001F401F401F301F301F301F201F201F15A
:1009000001F101F101F001F001EF01EF01EE01EE63
:1009100001EE01ED01ED01EC01EC01EB01EB01EB6E
:1009200001EA01EA01E901E901E801E801E801E77A
:1009300001E701E601E601E601E501E501E401E484
:1009400001E301E301E301E201E201E101E101E18F
:1009500001E001E001DF01DF01DF01DE01DE01DD99
:1009600001DD01DC01DC01DC01DB01DB01DA01DAA4
:1009700001DA01D901D901D801D801D801D701D7AD
:1009800001D601D601D601D501D501D401D401D4B7
:1009900001D301D301D201D201D201D101D101D0C1
:1009A00001D001D001CF01CF01CE01CE01CE01CDCA
:1009B00001CD01CC01CC01CC01CB01CB01CA01CAD4
:1009C00001CA01C901C901C801C801C801C701C7DD
:1009D00001C601C601C601C501C501C501C401C4E6
:1009E00001C301C301C301C201C201C101C101C1EF
:1009F00001C001C001BF01BF01BF01BE01BE01BEF8
:100A000001BD01BD01BC01BC01BC01BB01BB01BA00
:100A100001BA01BA01B901B901B901B801B801B708
:100A200001B701B701B601B601B501B501B501B411
:100A300001B401B401B301B301B201B201B201B119
:100A400001B101B101B001B001AF01AF01AF01AE21
:100A500001AE01AE01AD01AD01AC01AC01AC01AB29
:100A600001AB01AB01AA01AA01A901A901A901A831
:100A700001A801A801A701A701A601A601A601A539
:100A800001A501A501A401A401A401A301A301A240
:100A900001A201A201A101A101A101A001A001A047
:100AA000019F019F019E019E019E019D019D019D4F
:100AB000019C019C019B019B019B019A019A019A57
:100AC000019901990199019801980198019701975D
:100AD0000196019601960195019501950194019465
:100AE000019401930193019201920192019101916C
:100AF0000191019001900190018F018F018F018E72
:100B0000018E018D018D018D018C018C018C018B79
:100B1000018B018B018A018A018A0189018901897E
:100B20000188018801870187018701860186018686
:100B3000018501850185018401840184018301838C
:100B40000183018201820182018101810180018092
:100B50000180017F017F017F017E017E017E017D99
:100B6000017D017D017C017C017C017B017B017B9E
:100B7000017A017A017A01790179017901780178A4
:100B800001770177017701760176017601750175AC
:100B900001750174017401740173017301730172B1
:100BA00001720172017101710171017001700170B6
:100BB000016F016F016F016E016E016E016D016DBC
:100BC000016D016C016C016C016B016B016B016AC1
:100BD000016A016A016901690169016801680167C7
:100BE00001670167016601660166016501650165CE
:100BF00001640164016401630163016301620162D4
:100C00000162016101610161016001600160015FD8
:100C1000015F015F015E015E015E015D015D015DDD
:100C2000015C015C015C015B015B015B015A015AE3
:100C3000015A0159015901590159015801580158E6
:100C400001570157015701560156015601550155EB
:100C500001550154015401540153015301530152F0
:100C600001520152015101510151015001500150F5
:100C7000014F014F014F014E014E014E014D014DFB
:100C8000014D014C014C014C014B014B014B014A00
:100C9000014A014A01490149014901480148014805
:100CA0000148014701470147014601460146014508
:100CB000014501450144014401440143014301430D
:100CC0000142014201420141014101410140014013
:100CD0000140013F013F013F013F013E013E013E16
:100CE000013D013D013D013C013C013C013B013B1B
:100CF000013B013A013A013A013901390139013820
:100D00000138013801380137013701370136013622
:100D10000136013501350135013401340134013327
:100D2000013301330132013201320131013101312C
:100D30000131013001300130012F012F012F012E2F
:100D4000012E012E012D012D012D012C012C012C34
:100D5000012B012B012B012B012A012A012A012938
:100D6000012901290128012801280127012701273C
:100D70000126012601260126012501250125012440
:100D80000124012401230123012301220122012244
:100D90000121012101210121012001200120011F48
:100DA000011F011F011E011E011E011D011D011D4C
:100DB000011D011C011C011C011B011B011B011A4F
:100DC000011A011A01190119011901180118011854
:100DD0000118011701170117011601160116011557
:100DE000011501150114011401140114011301135B
:100DF000011301120112011201110111011101105F
:100E0000011001100110010F010F010F010E010E61
:100E1000010E010D010D010D010C010C010C010C65
:100E2000010B010B010B010A010A010A0109010969
:100E3000010901090108010801080107010701076B
:100E40000106010601060105010501050105010470
:100E50000104010401030103010301020102010273
:100E6000010201010101010101000100010001FF76
:100E700000FF00FF00FE00FE00FE00FE00FD00FD82
:100E800000FD00FC00FC00FC00FB00FB00FB00FB85
:100E900000FA00FA00FA00F900F900F900F800F889
:100EA00000F800F700F700F700F700F600F600F68C
:100EB00000F500F500F500F400F400F400F400F390
:100EC00000F300F300F200F200F200F100F100F193
:100ED00000F100F000F000F000EF00EF00EF00EE96
:100EE00000EE00EE00EE00ED00ED00ED00EC00EC99
:100EF00000EC00EB00EB00EB00EB00EA00EA00EA9C
:100F000000E900E900E900E800E800E800E800E79F
:100F100000E700E700E600E600E600E500E500E5A2
:100F200000E500E400E400E400E300E300E300E2A5
:100F300000E200E200E200E100E100E100E000E0A8
:100F400000E000DF00DF00DF00DF00DE00DE00DEAB
:100F500000DD00DD00DD00DC00DC00DC00DC00DBAF
:100F600000DB00DB00DA00DA00DA00D900D900D9B2
:100F700000D900D800D800D800D700D700D700D6B5
:100F800000D600D600D600D500D500D500D400D4B8
:100F900000D400D300D300D300D300D200D200D2BB
:100FA00000D100D100D100D000D000D000D000CFBF
:100FB00000CF00CF00CE00CE00CE00CE00CD00CDC1
:100FC00000CD00CC00CC00CC00CB00CB00CB00CBC4
:100FD00000CA00CA00CA00C900C900C900C800C8C8
:100FE00000C800C800C700C700C700C600C600C6CA
:100FF00000C500C500C500C500C400C400C400C3CE
:1010000000C300C300C200C200C200C200C100C1D0
:1010100000C100C000C000C000C000BF00BF00BFD2
:1010200000BE00BE00BE00BD00BD00BD00BD00BCD6
:1010300000BC00BC00BB00BB00BB00BA00BA00BAD9
:1010400000BA00B900B900B900B800B800B800B7DC
:1010500000B700B700B700B600B600B600B500B5DF
:1010600000B500B500B400B400B400B300B300B3E1
:1010700000B200B200B200B200B100B100B100B0E5
:1010800000B000B000AF00AF00AF00AF00AE00AEE8
:1010900000AE00AD00AD00AD00AC00AC00AC00ACEB
:1010A00000AB00AB00AB00AA00AA00AA00AA00A9EE
:1010B00000A900A900A800A800A800A700A700A7F1
:1010C00000A700A600A600A600A500A500A500A4F4
:1010D00000A400A400A400A300A300A300A200A2F7
:1010E00000A200A100A100A100A100A000A000A0FA
:1010F000009F009F009F009E009E009E009E009DFE
:10110000009D009D009C009C009C009B009B009B00
:10111000009B009A009A009A009900990099009902
:101120000098009800980097009700970096009606
:101130000096009600950095009500940094009408
:10114000009300930093009300920092009200910C
:10115000009100910090009000900090008F008F0F
:10116000008F008E008E008E008D008D008D008D12
:10117000008C008C008C008B008B008B008A008A16
:10118000008A008A00890089008900880088008818
:10119000008700870087008700860086008600851C
:1011A000008500850084008400840084008300831F
:1011B0000083008200820082008100810081008023
:1011C000008000800080000000000000000000009F
:1011D000000000000000000000000000000000000F
:1011E00000000000000000000000000000000000FF
:1011F00000000000000000000000000000000000EF
:1012000000000000000000000000000000000000DE
:1020D0000000000000000000000300060009000CE2
:1020E0000010001300160019001C001F002200251C
:1020F0000028002B002F003200350038003B003E46
:10210000004100440047004A004E0051005400576F
:10211000005A005D0060006300660069006D007099
:10212000007300760079007C007F008200850088C3
:10213000008C008F009200950098009B009E00A1EB
:1021400000A400A700AB00AE00B100B400B700BA15
:1021500000BD00C000C300CA00CD00D000D300D62F
:1021600000D900DC00DF00E200E500E900EC00EF50
:1021700000F200F500F800FB00FE00010104010878
:10218000010B010E011101140117011A011D01209B
:1021900001230127012A012D0130013301360139C4
:1021A000013C013F014201460149014C014F0152EE
:1021B00001550158015B015E016101650168016B18
:1021C000016E017101740177017A017D0180018442
:1021D0000187018A018D0190019301960199019C6B
:1021E000019F01A301A601A901AC01AF01B201B594
:1021F00001B801BB01BE01C201C501C801CB01CEBE
:1022000001D101D401D701DA01DD01E101E401E7E7
:1022100001EA01ED01F001F301F601F901FC010011
:10222000020302060209020C020F02120215021832
:10223000021B021F022202250228022B0231023455
:102240000237023A023E024102440247024A024D6C
:102250000250025302560259025D02600263026696
:102260000269026C026F027202750278027C027FC0
:10227000028202850288028B028E029102940297EA
:10228000029B029E02A102A402A702AA02AD02B012
:1022900002B302B602BA02BD02C002C302C602C93C
:1022A00002CC02CF02D202D502D902DC02DF02E266
:1022B00002E502E802EB02EE02F102F402F802FB90
:1022C00002FE020103040307030A030D03100313B4
:1022D0000317031A031D0320032303260329032CDA
:1022E000032F033203360339033C033F0342034504
:1022F0000348034B034E035103550358035B035E2E
:10230000036103640367036A036D03740377037A4D
:10231000037D0380038303860389038C038F039368
:1023200003960399039C039F03A203A503A803AB91
:1023300003AE03B203B503B803BB03BE03C103C4BA
:1023400003C703CA03CD03D103D403D703DA03DDE4
:1023500003E003E303E603E903EC03F003F303F60E
:1023600003F903FC03FF030204050408040B040F34
:10237000041204150418041B041E04210424042759
:10238000042A042E043104340437043A043D044082
:10239000044304460449044D0450045304560459AC
:1023A000045C045F046204650468046C046F0472D6
:1023B00004750478047B047E048104840487048B00
:1023C000048E049104940497049D04A004A304A61D
:1023D00004AA04AD04B004B304B604B904BC04BF39
:1023E00004C204C504C904CC04CF04D204D504D863
:1023F00004DB04DE04E104E404E804EB04EE04F18D
:1024000004F404F704FA04FD040005030507050AB3
:10241000050D0510051305160519051C051F0522D8
:1024200005260529052C052F053205350538053B00
:10243000053E054105450548054B054E055105542A
:102440000557055A055D056005640567056A056D54
:102450000570057305760579057C057F058305867E
:102460000589058C058F059205950598059B059EA8
:1024700005A205A505A805AE05B105B405B705BAC1
:1024800005BD05C105C405C705CA05CD05D005D3E1
:1024900005D605D905DC05E005E305E605E905EC0B
:1024A00005EF05F205F505F805FB05FF0502060534
:1024B0000608060B060E061106140617061A061E57
:1024C000062106240627062A062D06300633063680
:1024D0000639063D0640064306460649064C064FA9
:1024E000065206550658065C065F066206650668D3
:1024F000066B066E067106740677067B067E0681FD
:1025000006840687068A068D069006930696069A26
:10251000069D06A006A306A606AC06AF06B206B543
:1025200006B906BC06BF06C206C506C806CB06CE5F
:1025300006D106D406D806DB06DE06E106E406E789
:1025400006EA06ED06F006F306F706FA06FD0600B3
:10255000070307060709070C070F071207160719D5
:10256000071C071F072207250728072B072E0731FF
:1025700007350738073B073E074107440747074A27
:10258000074D075007540757075A075D0760076351
:1025900007660769076C076F077307760779077C7B
:1025A000077F078207850788078B078E07920795A5
:1025B0000798079E07A107A407A707AA07AD07B1B9
:1025C00007B407B707BA07BD07C007C307C607C9DF
:1025D00007CC07D007D307D607D907DC07DF07E208
:1025E00007E507E807EB07EF07F207F507F807FB32
:1025F00007FE070108040807080A080E0811081456
:102600000817081A081D0820082308260829082D7D
:102610000830083308360839083C083F08420845A6
:102620000848084C084F085208550858085B085ECF
:10263000086108640867086B086E087108740877F9
:10264000087A087D08830886088A088D0890089310
:1026500008960899089C089F08A208A508A908AC34
:1026600008AF08B208B508B808BB08BE08C108C45E
:1026700008C808CB08CE08D108D408D708DA08DD86
:1026800008E008E308E708EA08ED08F008F308F6B0
:1026900008F908FC08FF080209060909090C090FD6
:1026A000091209150918091B091E092109250928FC
:1026B000092B092E093109340937093A093D094026
:1026C00009440947094A094D09500953095609594E
:1026D000095F096309660969096C096F097209755F
:1026E0000978097B097E098209850988098B098E89
:1026F000099109940997099A099D09A109A409A7B3
:1027000009AA09AD09B009B309B609B909BC09C0DC
:1027100009C309C609C909CC09CF09D209D509D805
:1027200009DB09DF09E209E509E809EB09EE09F12E
:1027300009F409F709FA09FE09010A040A070A0A55
:102740000A0D0A100A130A160A190A1D0A200A237A
:102750000A260A290A2F0A320A350A380A3C0A3F91
:102760000A420A450A480A4B0A4E0A510A540A57B5
:102770000A5B0A5E0A610A640A670A6A0A6D0A70DD
:102780000A730A760A7A0A7D0A800A830A860A8907
:102790000A8C0A8F0A920A950A990A9C0A9F0AA231
:1027A0000AA50AA80AAB0AAE0AB10AB40AB80ABB5B
:1027B0000ABE0AC10AC40AC70ACA0ACD0AD00AD385
:1027C0000AD70ADA0ADD0AE00AE30AE60AE90AECAD
:1027D0000AEF0AF20AF90AFC0AFF0A020B050B08C3
:1027E0000B0B0B0E0B110B150B180B1B0B1E0B21E0
:1027F0000B240B270B2A0B2D0B300B340B370B3A0A
:102800000B3D0B400B430B460B490B4C0B4F0B5333
:102810000B560B590B5C0B5F0B620B650B680B6B5C
:102820000B6E0B720B750B780B7B0B7E0B810B8485
:102830000B870B8A0B8D0B910B940B970B9A0B9DAF
:102840000BA00BA30BA60BA90BAC0BB00BB30BB9D6
:102850000BBC0BBF0BC20BC50BC80BCB0BCF0BD2EA
:102860000BD50BD80BDB0BDE0BE10BE40BE70BEA14
:102870000BEE0BF10BF40BF70BFA0BFD0B000C033B
:102880000C060C090C0D0C100C130C160C190C1C5E
:102890000C1F0C220C250C280C2C0C2F0C320C3588
:1028A0000C380C3B0C3E0C410C440C470C4B0C4EB2
:1028B0000C510C540C570C5A0C5D0C600C630C66DC
:1028C0000C6A0C6D0C700C760C790C7C0C7F0C82F5
:1028D0000C850C890C8C0C8F0C920C950C980C9B15
:1028E0000C9E0CA10CA40CA80CAB0CAE0CB10CB43F
:1028F0000CB70CBA0CBD0CC00CC30CC70CCA0CCD69
:102900000CD00CD30CD60CD90CDC0CDF0CE20CE692
:102910000CE90CEC0CEF0CF20CF50CF80CFB0CFEBB
:102920000C010D050D080D0B0D0E0D110D140D17DD
:102930000D1A0D1D0D200D240D2A0D2D0D300D33FA
:102940000D360D390D3C0D3F0D430D460D490D4C17
:102950000D4F0D520D550D580D5B0D5E0D620D6541
:102960000D680D6B0D6E0D710D740D770D7A0D7D6B
:102970000D810D840D870D8A0D8D0D900D930D9693
:102980000D990D9C0DA00DA30DA60DA90DAC0DAFBD
:102990000DB20DB50DB80DBB0DBF0DC20DC50DC8E7
:1029A0000DCB0DCE0DD10DD40DDA0DDE0DE10DE404
:1029B0000DE70DEA0DED0DF00DF30DF60DF90DFD22
:1029C0000D000E030E060E090E0C0E0F0E120E1544
:1029D0000E180E1C0E1F0E220E250E280E2B0E2E6C
:1029E0000E310E340E370E3B0E3E0E410E440E4796
:1029F0000E4A0E4D0E500E530E560E5A0E5D0E60C0
:102A00000E630E660E690E6C0E6F0E720E750E79E9
:102A10000E7C0E7F0E850E880E8B0E8E0E910E9400
:102A20000E980E9B0E9E0EA10EA40EA70EAA0EAD22
:102A30000EB00EB30EB70EBA0EBD0EC00EC30EC64C
:102A40000EC90ECC0ECF0ED20ED60ED90EDC0EDF76
:102A50000EE20EE50EE80EEB0EEE0EF10EF50EF8A0
:102A60000EFB0EFE0E010F040F070F0A0F0D0F10C5
:102A70000F140F170F1A0F1D0F200F230F260F2CE7
:102A80000F2F0F330F360F390F3C0F3F0F420F45FB
:102A90000F480F4B0F4E0F520F550F580F5B0F5E25
:102AA0000F610F640F670F6A0F6D0F710F740F774F
:102AB0000F7A0F7D0F800F830F860F890F8C0F9079
:102AC0000F930F960F990F9C0F9F0FA20FA50FA8A2
:102AD0000FAB0FAF0FB20FB50FB80FBB0FBE0FC1CB
:102AE0000FC40FC70FCE0FD10FD40FD70FDA0FDDE2
:102AF0000FE00FE30FE60FE90FED0FF00FF30FF606
:102B00000FF90FFC0FFF0F0210051008100C100F2B
:102B1000101210151018101B101E10211024102751
:102B2000102B102E103110341037103A103D104079
:102B300010431046104A104D1050105310561059A3
:102B4000105C105F10621065106C106F10721075C1
:102B50001078107B107E108110841088108B108EDE
:102B6000109110941097109A109D10A010A310A708
:102B700010AA10AD10B010B310B610B910BC10BF31
:102B800010C210C610C910CC10CF10D210D510D85A
:102B900010DB10DE10E110E510E810EB10EE10F184
:102BA00010F410F710FA10FD10001107110A110DA2
:102BB0001110111311161119111C111F11231126B7
:102BC0001129112C112F113211351138113B113EE1
:102BD000114211451148114B114E11511154115709
:102BE000115A115D116111641167116A116D117033
:102BF000117311761179117C11801183118611895D
:102C0000118C118F119211951198119F11A211A57C
:102C100011A811AB11AE11B111B411B711BA11BE97
:102C200011C111C411C711CA11CD11D011D311D6C0
:102C300011D911DD11E011E311E611E911EC11EFE9
:102C400011F211F511F811FC11FF11021205120811
:102C5000120B120E121112141217121B121E122135
:102C600012241227122A122D12331236123A123D52
:102C70001240124312461249124C124F1252125570
:102C80001259125C125F126212651268126B126E98
:102C9000127112741278127B127E128112841287C2
:102CA000128A128D129012931297129A129D12A0EC
:102CB00012A312A612A912AC12AF12B212B612B916
:102CC00012BC12BF12C512C812CB12CE12D112D52D
:102CD00012D812DB12DE12E112E412E712EA12ED50
:102CE00012F012F412F712FA12FD12001303130677
:102CF0001309130C130F131313161319131C131F9B
:102D0000132213251328132B132E133213351338C4
:102D1000133B133E134113441347134A134D1354EB
:102D20001357135A135D1360136313661369136CFF
:102D30001370137313761379137C137F1382138527
:102D40001388138B138F139213951398139B139E51
:102D500013A113A413A713AA13AE13B113B413B77B
:102D600013BA13BD13C013C313C613C913CD13D0A5
:102D700013D313D613D913DF13E213E513E813ECBF
:102D800013EF13F213F513F813FB13FE13011404DE
:102D90001407140B140E141114141417141A141D00
:102DA000142014231426142A142D1430143314362A
:102DB0001439143C143F144214451449144C144F54
:102DC000145214551458145B145E14611468146B77
:102DD000146E147114741477147A147D148014838F
:102DE0001487148A148D1490149314961499149CB7
:102DF000149F14A214A614A914AC14AF14B214B5E1
:102E000014B814BB14BE14C114C514C814CB14CE0A
:102E100014D114D414D714DA14DD14E014E414E734
:102E200014EA14F014F314F614F914FC14FF140348
:102E300015061509150C150F151215151518151B66
:102E4000151E152215251528152B152E153115348F
:102E50001537153A153D154115441547154A154DB9
:102E60001550155315561559155C156015631566E3
:102E70001569156C157215751578157B157F1582FA
:102E800015851588158B158E159115941597159A1E
:102E9000159E15A115A415A715AA15AD15B015B346
:102EA00015B615B915BD15C015C315C615C915CC70
:102EB00015CF15D215D515D815DC15DF15E215E59A
:102EC00015E815EB15EE15F415F715FB15FE1501B4
:102ED00016041607160A160D161016131616161ACD
:102EE000161D1620162316261629162C162F1632F6
:102EF00016351639163C163F164216451648164B1F
:102F0000164E165116541658165B165E1661166448
:102F10001667166A166D16701677167A167D168065
:102F2000168316861689168C168F16921696169983
:102F3000169C169F16A216A516A816AB16AE16B1AD
:102F400016B516B816BB16BE16C116C416C716CAD5
:102F500016CD16D016D416D716DA16DD16E016E3FF
:102F600016E616E916EC16EF16F616F916FC16FF1D
:102F7000160217051708170B170E17121715171833
:102F8000171B171E172117241727172A172D17315C
:102F900017341737173A173D174017431746174985
:102FA000174C1750175317561759175C175F1762AE
:102FB00017651768176B177217751778177B177EC9
:102FC000178117841787178A178E179117941797E9
:102FD000179A179D17A017A317A617A917AD17B013
:102FE00017B317B617B917BC17BF17C217C517C83D
:102FF00017CC17CF17D217D517D817DB17DE17E165
:1030000017E417EB17EE17F117F417F717FA17FD78
:10301000170018031806180A180D18101813181698
:103020001819181C181F182218251829182C182FC1
:10303000183218351838183B183E184118441848EB
:10304000184B184E185118541857185A185D186311
:103050001867186A186D1870187318761879187C24
:10306000187F188218861889188C188F189218954E
:103070001898189B189E18A118A518A818AB18AE78
:1030800018B118B418B718BA18BD18C018C418C7A2
:1030900018CA18CD18D018D318D618DC18DF18E3C2
:1030A00018E618E918EC18EF18F218F518F818FBDC
:1030B00018FE180219051908190B190E19111914FF
:1030C0001917191A191D192119241927192A192D27
:1030D0001930193319361939193C19401943194651
:1030E0001949194C195219551958195B195F196268
:1030F00019651968196B196E197119741977197A8C
:10310000197E198119841987198A198D19901993B3
:1031100019961999199D19A019A319A619A919ACDD
:1031200019AF19B219B519B819BC19BF19C519C801
:1031300019CB19CE19D119D419D719DB19DE19E118
:1031400019E419E719EA19ED19F019F319F619FA42
:1031500019FD19001A031A061A091A0C1A0F1A1265
:103160001A151A191A1C1A1F1A221A251A281A2B8C
:103170001A2E1A311A381A3B1A3E1A411A441A47A3
:103180001A4A1A4D1A501A531A571A5A1A5D1A60C7
:103190001A631A661A691A6C1A6F1A721A761A79F1
:1031A0001A7C1A7F1A821A851A881A8B1A8E1A911B
:1031B0001A951A981A9B1A9E1AA11AA41AAA1AAD3D
:1031C0001AB01AB41AB71ABA1ABD1AC01AC31AC654
:1031D0001AC91ACC1ACF1AD31AD61AD91ADC1ADF7E
:1031E0001AE21AE51AE81AEB1AEE1AF21AF51AF8A8
:1031F0001AFB1AFE1A011B041B071B0A1B0D1B11CD
:103200001B141B1A1B1D1B201B231B261B291B2CDD
:103210001B301B331B361B391B3C1B3F1B421B4502
:103220001B481B4B1B4F1B521B551B581B5B1B5E2C
:103230001B611B641B671B6A1B6E1B711B741B7756
:103240001B7A1B7D1B801B831B891B8D1B901B9373
:103250001B961B991B9C1B9F1BA21BA51BA81BAC91
:103260001BAF1BB21BB51BB81BBB1BBE1BC11BC4BA
:103270001BC71BCB1BCE1BD11BD41BD71BDA1BDDE3
:103280001BE01BE31BE61BEA1BED1BF01BF61BF907
:103290001BFC1BFF1B021C051C091C0C1C0F1C1219
:1032A0001C151C181C1B1C1E1C211C241C281C2B40
:1032B0001C2E1C311C341C371C3A1C3D1C401C436A
:1032C0001C471C4A1C4D1C501C531C561C591C5C92
:1032D0001C621C661C691C6C1C6F1C721C751C78A3
:1032E0001C7B1C7E1C811C851C881C8B1C8E1C91CD
:1032F0001C941C971C9A1C9D1CA01CA41CA71CAAF7
:103300001CAD1CB01CB31CB61CB91CBC1CBF1CC320
:103310001CC61CC91CCF1CD21CD51CD81CDB1CDE37
:103320001CE21CE51CE81CEB1CEE1CF11CF41CF759
:103330001CFA1CFD1C011D041D071D0A1D0D1D107E
:103340001D131D161D191D1C1D201D231D261D29A5
:103350001D2C1D2F1D321D381D3B1D3F1D421D45BF
:103360001D481D4B1D4E1D511D541D571D5A1D5EE0
:103370001D611D641D671D6A1D6D1D701D731D7609
:103380001D791D7D1D801D831D861D891D8C1D8F32
:103390001D921D951D981D9C1DA21DA51DA81DAB50
:1033A0001DAE1DB11DB41DB71DBB1DBE1DC11DC46D
:1033B0001DC71DCA1DCD1DD01DD31DD61DDA1DDD97
:1033C0001DE01DE31DE61DE91DEC1DEF1DF21DF5C1
:1033D0001DF91DFC1DFF1D021E081E0B1E0E1E11D9
:1033E0001E141E181E1B1E1E1E211E241E271E2AF2
:1033F0001E2D1E301E331E371E3A1E3D1E401E431C
:103400001E461E491E4C1E4F1E521E561E591E5C45
:103410001E5F1E621E651E681E6E1E711E751E7862
:103420001E7B1E7E1E811E841E871E8A1E8D1E9080
:103430001E941E971E9A1E9D1EA01EA31EA61EA9A8
:103440001EAC1EAF1EB31EB61EB91EBC1EBF1EC2D2
:103450001EC51EC81ECB1ECE1ED51ED81EDB1EDEF0
:103460001EE11EE41EE71EEA1EED1EF11EF41EF70D
:103470001EFA1EFD1E001F031F061F091F0C1F1032
:103480001F131F161F191F1C1F1F1F221F251F2858
:103490001F2B1F2F1F321F351F3B1F3E1F411F4475
:1034A0001F471F4A1F4E1F511F541F571F5A1F5D92
:1034B0001F601F631F661F691F6D1F701F731F76BC
:1034C0001F791F7C1F7F1F821F851F881F8C1F8FE6
:1034D0001F921F951F981F9E1FA11FA41FA71FAB00
:1034E0001FAE1FB11FB41FB71FBA1FBD1FC01FC320
:1034F0001FC61FCA1FCD1FD01FD31FD61FD91FDC49
:103500001FDF1FE21FE51FE91FEC1FEF1FF21FF572
:103510001FF81FFB1F0120042008200B200E201184
:1035200020142017201A201D202020232027202AA5
:10353000202D2030203320362039203C203F2042CF
:1035400020462049204C204F205220552058205BF7
:10355000206120652068206B206E20712074207708
:10356000207A207D208020842087208A208D209032
:10357000209320962099209C209F20A320A620A95C
:1035800020AC20AF20B220B520B820BB20BE20C583
:1035900020C820CB20CE20D120D420D720DA20DD97
:1035A00020E120E420E720EA20ED20F020F320F6BF
:1035B00020F920FC2000210321062109210C210FE4
:1035C000211221152118211B211F21252128212B02
:1035D000212E213121342137213A213E214121441C
:1035E0002147214A214D2150215321562159215D46
:1035F0002160216321662169216C216F217221756F
:103600002178217C218221852188218B218E219185
:1036100021942197219B219E21A121A421A721AAA8
:1036200021AD21B021B321B621BA21BD21C021C3D2
:1036300021C621C921CC21CF21D221D521D921DCFC
:1036400021E221E521E821EB21EE21F121F421F80D
:1036500021FB21FE210122042207220A220D221031
:1036600022132217221A221D222022232226222957
:10367000222C222F223222362239223F2242224578
:103680002248224B224E225122552258225B225E92
:10369000226122642267226A226D227022742277BC
:1036A000227A227D2280228322862289228C228FE6
:1036B00022932296229C229F22A222A522A822ABFC
:1036C00022AE22B222B522B822BB22BE22C122C41F
:1036D00022C722CA22CD22D122D422D722DA22DD49
:1036E00022E022E322E622E922EC22F022F322F970
:1036F00022FC22FF220223052308230B230F23127F
:1037000023152318231B231E232123242327232AA5
:10371000232E233123342337233A233D23402343CD
:1037200023462349234D235323562359235C235FE8
:10373000236223652368236C236F23722375237808
:10374000237B237E238123842387238B238E239132
:1037500023942397239A239D23A023A323A623AA5C
:1037600023B023B323B623B923BC23BF23C223C56D
:1037700023C923CC23CF23D223D523D823DB23DE95
:1037800023E123E423E823EB23EE23F123F423F7BF
:1037900023FA23FD23002403240A240D24102413D8
:1037A00024162419241C241F242224262429242CF2
:1037B000242F243224352438243B243E244124451C
:1037C0002448244B244E245124542457245A245D45
:1037D00024642467246A246D247024732476247955
:1037E000247C247F248324862489248C248F24927F
:1037F00024952498249B249E24A224A524A824ABA9
:1038000024AE24B124B424BA24BD24C124C424C7C2
:1038100024CA24CD24D024D324D624D924DC24E0E3
:1038200024E324E624E924EC24EF24F224F524F80C
:1038300024FB24FF240225052508250B250E25142D
:103840002517251A251E252125242527252A252D3E
:103850002530253325362539253D25402543254668
:103860002549254C254F255225552558255C255F92
:1038700025622565256B256E257125742577257BA9
:10388000257E258125842587258A258D25902593CC
:103890002596259A259D25A025A325A625A925ACF5
:1038A00025AF25B225B525B925BC25C225C525C816
:1038B00025CB25CE25D125D425D825DB25DE25E130
:1038C00025E425E725EA25ED25F025F325F725FA5A
:1038D00025FD2500260326062609260C260F26127E
:1038E0002619261C261F262226252628262B262E8C
:1038F000263126352638263B263E264126442647B5
:10390000264A264D265026542657265A265D2660DE
:1039100026632666266C266F267326762679267CF5
:10392000267F268226852688268B268E2692269519
:103930002698269B269E26A126A426A726AA26AD43
:1039400026B126B426B726BA26BD26C326C626C962
:1039500026CC26D026D326D626D926DC26DF26E27C
:1039600026E526E826EB26EF26F226F526F826FBA6
:1039700026FE260127042707270A270E27112717C7
:10398000271A271D2720272327262729272D2730D9
:10399000273327362739273C273F27422745274803
:1039A000274C274F275227552758275B275E27612B
:1039B0002764276B276E277127742777277A277D3F
:1039C000278027832786278A278D27902793279666
:1039D0002799279C279F27A227A527A927AC27AF90
:1039E00027B227B527B827BE27C127C427C827CBAA
:1039F00027CE27D127D427D727DA27DD27E027E3CB
:103A000027E727EA27ED27F027F327F627F927FCF2
:103A100027FF270228062809280C2812281528180D
:103A2000281B281E282128252828282B282E283125
:103A300028342837283A283D284028442847284A4F
:103A4000284D2850285328562859285C2863286672
:103A50002869286C286F287228752878287B287E8A
:103A6000288228852888288B288E289128942897B2
:103A7000289A289D28A128A428A728AA28AD28B0DC
:103A800028B628B928BC28C028C328C628C928CCED
:103A900028CF28D228D528D828DB28DF28E228E517
:103AA00028E828EB28EE28F128F428F728FA28FE41
:103AB00028012907290A290D29102913291629194E
:103AC000291D2920292329262929292C292F293272
:103AD00029352938293C293F294229452948294B9C
:103AE000294E29512957295B295E296129642967B3
:103AF000296A296D297029732976297A297D2980D7
:103B0000298329862989298C298F29922995299900
:103B1000299C299F29A229A829AB29AE29B129B41A
:103B200029B829BB29BE29C129C429C729CA29CD39
:103B300029D029D329D729DA29DD29E029E329E663
:103B400029E929EC29EF29F629F929FC29FF29027D
:103B50002A052A082A0B2A0E2A112A152A182A1B96
:103B60002A1E2A212A242A272A2A2A2D2A302A34C0
:103B70002A372A3A2A3D2A402A462A492A4C2A4FDD
:103B80002A532A562A592A5C2A5F2A622A652A68F9
:103B90002A6B2A6E2A722A752A782A7B2A7E2A8123
:103BA0002A842A872A8A2A8D2A942A972A9A2A9D41
:103BB0002AA02AA32AA62AA92AAC2AB02AB32AB65E
:103BC0002AB92ABC2ABF2AC22AC52AC82ACB2ACF88
:103BD0002AD22AD52AD82ADB2ADE2AE42AE72AEAA8
:103BE0002AEE2AF12AF42AF72AFA2AFD2A002B03C0
:103BF0002B062B092B0D2B102B132B162B192B1CE3
:103C00002B1F2B222B252B282B2C2B322B352B3803
:103C10002B3B2B3E2B412B442B472B4B2B4E2B511D
:103C20002B542B572B5A2B5D2B602B632B662B6A47
:103C30002B6D2B702B732B762B792B7F2B822B8567
:103C40002B892B8C2B8F2B922B952B982B9B2B9E80
:103C50002BA12BA42BA82BAB2BAE2BB12BB42BB7AA
:103C60002BBA2BBD2BC02BC32BC72BCD2BD02BD3CB
:103C70002BD62BD92BDC2BDF2BE22BE62BE92BECE5
:103C80002BEF2BF22BF52BF82BFB2BFE2B012C050E
:103C90002C082C0B2C0E2C112C172C1A2C1D2C2024
:103CA0002C242C272C2A2C2D2C302C332C362C3940
:103CB0002C3C2C3F2C432C462C492C4C2C4F2C526A
:103CC0002C552C582C5B2C5E2C652C682C6B2C6E88
:103CD0002C712C742C772C7A2C7D2C812C842C87A5
:103CE0002C8A2C8D2C902C932C962C992C9C2CA0CF
:103CF0002CA32CA62CA92CAF2CB22CB52CB82CBBE9
:103D00002CBF2CC22CC52CC82CCB2CCE2CD12CD407
:103D10002CD72CDA2CDE2CE12CE42CE72CEA2CED31
:103D20002CF02CF32CF62CFD2C002D032D062D0948
:103D30002D0C2D0F2D122D152D182D1C2D1F2D2264
:103D40002D252D282D2B2D2E2D312D342D372D3B8E
:103D50002D3E2D412D472D4A2D4D2D502D532D56A5
:103D60002D5A2D5D2D602D632D662D692D6C2D6FC7
:103D70002D722D752D792D7C2D7F2D822D852D88F1
:103D80002D8B2D912D942D982D9B2D9E2DA12DA405
:103D90002DA72DAA2DAD2DB02DB32DB72DBA2DBD2C
:103DA0002DC02DC32DC62DC92DCC2DCF2DD22DD656
:103DB0002DDC2DDF2DE22DE52DE82DEB2DEE2DF167
:103DC0002DF52DF82DFB2DFE2D012E042E072E0A8C
:103DD0002E0D2E102E142E172E1A2E1D2E202E26AE
:103DE0002E292E2C2E2F2E332E362E392E3C2E3FC2
:103DF0002E422E452E482E4B2E4E2E522E552E58EC
:103E00002E5B2E5E2E612E642E672E6D2E712E740B
:103E10002E772E7A2E7D2E802E832E862E892E8C26
:103E20002E902E932E962E992E9C2E9F2EA22EA54E
:103E30002EA82EAB2EAF2EB22EB82EBB2EBE2EC16C
:103E40002EC42EC72ECA2ECE2ED12ED42ED72EDA89
:103E50002EDD2EE02EE32EE62EE92EED2EF02EF3B3
:103E60002EF62EF92EFF2E022F052F082F0C2F0FC6
:103E70002F122F152F182F1B2F1E2F212F242F27E6
:103E80002F2B2F2E2F312F342F372F3A2F3D2F400E
:103E90002F432F4A2F4D2F502F532F562F592F5C22
:103EA0002F5F2F622F652F692F6C2F6F2F722F7549
:103EB0002F782F7B2F7E2F812F842F882F8B2F9170
:103EC0002F942F972F9A2F9D2FA02FA32FA72FAA84
:103ED0002FAD2FB02FB32FB62FB92FBC2FBF2FC2AE
:103EE0002FC62FC92FCC2FCF2FD22FD82FDB2FDECD
:103EF0002FE12FE52FE82FEB2FEE2FF12FF42FF7E7
:103F00002FFA2FFD2F0030043007300A300D30100B
:103F1000301330163019301F302330263029302C22
:103F2000302F303230353038303B303E3042304543
:103F30003048304B304E305130543057305A305D6D
:103F400030613067306A306D307030733076307980
:103F5000307C3080308330863089308C308F3092A6
:103F600030953098309B309F30A230A530A830AECD
:103F700030B130B430B730BA30BE30C130C430C7E1
:103F800030CA30CD30D030D330D630D930DD30E00B
:103F900030E330E630E930EC30F230F530F830FC28
:103FA00030FF300231053108310B310E311131143F
:103FB0003117311B311E312131243127312A312D66
:103FC00031303133313A313D31403143314631497D
:103FD000314C314F315231553159315C315F3162A1
:103FE00031653168316B316E317131743178317EC8
:103FF000318131843187318A318D319031933196DD
:10400000319A319D31A031A331A631A931AC31AF04
:1040100031B231B531B931BC31BF31C531C831CB25
:1040200031CE31D131D431D831DB31DE31E131E43F
:1040300031E731EA31ED31F031F331F731FA31FD69
:10404000310032033209320C320F32123216321979
:10405000321C321F322232253228322B322E32319C
:1040600032353238323B323E324132443247324DC1
:10407000325032543257325A325D326032633266D5
:104080003269326C326F327332763279327C327FFF
:10409000328232853288328B329232953298329B1C
:1040A000329E32A132A432A732AA32AD32B132B43A
:1040B00032B732BA32BD32C032C332C632C932CC64
:1040C00032D032D632D932DC32DF32E232E532E877
:1040D00032EB32EF32F232F532F832FB32FE32019D
:1040E00033043307330A330E33113314331A331DB9
:1040F0003320332333263329332D333033333336D0
:104100003339333C333F334233453348334C334FF9
:10411000335233553358335E336133643367336B13
:10412000336E337133743377337A337D3380338333
:104130003386338A338D3390339333963399339F59
:1041400033A233A533A933AC33AF33B233B533B86D
:1041500033BB33BE33C133C433C833CB33CE33D197
:1041600033D433D733DA33DD33E333E733EA33EDB4
:1041700033F033F333F633F933FC33FF33023406D1
:104180003409340C340F341234153418341B341EF3
:1041900034253428342B342E343134343437343A03
:1041A000343D344034443447344A344D345034532D
:1041B00034563459345C345F34633469346C346F4E
:1041C000347234753478347B347E34823485348868
:1041D000348B348E349134943497349A349D34A192
:1041E00034A434AA34AD34B034B334B634B934BCA6
:1041F00034C034C334C634C934CC34CF34D234D5CB
:1042000034D834DB34DF34E234E534EB34EE34F1EB
:1042100034F434F734FA34FE340135043507350A02
:10422000350D3510351335163519351D3520352327
:104230003526352C352F353235353538353C353F3B
:10424000354235453548354B354E35513554355762
:10425000355B355E356135643567356A3570357384
:104260003576357A357D3580358335863589358C9B
:10427000358F359235953599359C359F35A235A5C5
:1042800035A835AB35B135B435B835BB35BE35C1DC
:1042900035C435C735CA35CD35D035D335D735DA00
:1042A00035DD35E035E335E635E935EF35F235F620
:1042B00035F935FC35FF350236053608360B360E36
:1042C000361136153618361B361E3621362436275B
:1042D000362A363036343637363A363D364036436F
:1042E00036463649364C364F365336563659365C96
:1042F000365F366236653668366B367236753678B6
:10430000367B367E368136843687368A368D3691D0
:1043100036943697369A369D36A036A336A636A9F9
:1043200036AC36B336B636B936BC36BF36C236C50D
:1043300036C836CB36CF36D236D536D836DB36DE33
:1043400036E136E436E736EA36F136F436F736FA51
:1043500036FD3600370337063709370D3710371368
:1043600037163719371C371F372237253728372C90
:10437000373237353738373B373E374137443747A1
:10438000374B374E375137543757375A375D3760C9
:1043900037633766376A3770377337763779377CE4
:1043A000377F378237853789378C378F3792379504
:1043B0003798379B379E37A137A437A837AE37B128
:1043C00037B437B737BA37BD37C037C337C737CA3F
:1043D00037CD37D037D337D637D937DC37DF37E269
:1043E00037E637E937EF37F237F537F837FB37FE7F
:1043F000370138053808380B380E3811381438179B
:10440000381A381D382038243827382D38303833BA
:1044100038363839383C383F384338463849384CD4
:10442000384F385238553858385B385E38623865FE
:10443000386B386E387138743877387A387D38810F
:1044400038843887388A388D389038933896389938
:10445000389C38A038A338A938AC38AF38B238B552
:1044600038B838BB38BF38C238C538C838CB38CE72
:1044700038D138D438D738DA38DE38E138E738EA96
:1044800038ED38F038F338F638F938FD38003903AC
:1044900039063909390C390F391239153918391CCF
:1044A000391F39253928392B392E393139343937E3
:1044B000393B393E394139443947394A394D395008
:1044C00039533956395A395D396339663969396C26
:1044D000396F397239753979397C397F3982398543
:1044E0003988398B398E399139943998399E39A167
:1044F00039A439A739AA39AD39B039B339B739BA7E
:1045000039BD39C039C339C639C939CC39CF39D2A7
:1045100039D639DC39DF39E239E539E839EB39EEBA
:1045200039F139F539F839FB39FE39013A043A07DE
:104530003A0A3A0D3A103A143A1A3A1D3A203A23F6
:104540003A263A293A2C3A2F3A333A363A393A3C13
:104550003A3F3A423A453A483A4B3A4E3A553A5837
:104560003A5B3A5E3A613A643A673A6A3A6D3A714E
:104570003A743A773A7A3A7D3A803A833A863A8977
:104580003A8C3A933A963A993A9C3A9F3AA23AA58B
:104590003AA83AAB3AAF3AB23AB53AB83ABB3ABEB1
:1045A0003AC13AC43AC73ACE3AD13AD43AD73ADACB
:1045B0003ADD3AE03AE33AE63AE93AED3AF03AF3EC
:1045C0003AF63AF93AFC3AFF3A023B083B0C3B0F09
:1045D0003B123B153B183B1B3B1E3B213B243B271F
:1045E0003B2B3B2E3B313B343B373B3A3B3D3B4047
:1045F0003B463B4A3B4D3B503B533B563B593B5C58
:104600003B5F3B623B653B693B6C3B6F3B723B7581
:104610003B783B7B3B813B843B883B8B3B8E3B9198
:104620003B943B973B9A3B9D3BA03BA33BA73BAABC
:104630003BAD3BB03BB33BB63BBC3BBF3BC23BC6D9
:104640003BC93BCC3BCF3BD23BD53BD83BDB3BDEF6
:104650003BE13BE53BE83BEB3BEE3BF13BF73BFA19
:104660003BFD3B003C043C073C0A3C0D3C103C132A
:104670003C163C193C1C3C1F3C233C263C293C2C52
:104680003C323C353C383C3B3C3E3C423C453C4863
:104690003C4B3C4E3C513C543C573C5A3C5D3C618D
:1046A0003C643C673C6D3C703C733C763C793C7CA4
:1046B0003C803C833C863C893C8C3C8F3C923C95C6
:1046C0003C983C9B3C9F3CA23CA83CAB3CAE3CB1E4
:1046D0003CB43CB73CBA3CBE3CC13CC43CC73CCA01
:1046E0003CCD3CD03CD33CD63CD93CDD3CE33CE625
:1046F0003CE93CEC3CEF3CF23CF53CF83CFC3CFF3C
:104700003C023D053D083D0B3D0E3D113D143D1B5A
:104710003D1E3D213D243D273D2A3D2D3D303D336D
:104720003D363D3A3D3D3D403D433D463D493D4C96
:104730003D4F3D553D593D5C3D5F3D623D653D68AA
:104740003D6B3D6E3D713D743D783D7B3D7E3D81D1
:104750003D843D873D8A3D903D933D973D9A3D9DEB
:104760003DA03DA33DA63DA93DAC3DAF3DB23DB60C
:104770003DB93DBC3DBF3DC23DC83DCB3DCE3DD129
:104780003DD53DD83DDB3DDE3DE13DE43DE73DEA45
:104790003DED3DF03DF43DF73DFA3DFD3D033E0668
:1047A0003E093E0C3E0F3E133E163E193E1C3E1F78
:1047B0003E223E253E283E2B3E2E3E323E353E3B9F
:1047C0003E3E3E413E443E473E4A3E4D3E513E54B3
:1047D0003E573E5A3E5D3E603E633E663E693E6CDD
:1047E0003E703E763E793E7C3E7F3E823E853E88F0
:1047F0003E8B3E8F3E923E953E983E9B3E9E3EA116
:104800003EA43EA73EAE3EB13EB43EB73EBA3EBD2C
:104810003EC03EC33EC63EC93ECD3ED03ED33ED650
:104820003ED93EDC3EDF3EE23EE83EEC3EEF3EF26D
:104830003EF53EF83EFB3EFE3E013F043F073F0B88
:104840003F0E3F113F143F173F1A3F203F233F26A3
:104850003F2A3F2D3F303F333F363F393F3C3F3FBC
:104860003F423F453F493F4C3F4F3F523F583F5BE0
:104870003F5E3F613F643F683F6B3F6E3F713F74F7
:104880003F773F7A3F7D3F803F833F873F8A3F901E
:104890003F933F963F993F9C3F9F3FA23FA63FA932
:1048A0003FAC3FAF3FB23FB53FB83FBB3FBE3FC15C
:1048B0003FC83FCB3FCE3FD13FD43FD73FDA3FDD6C
:1048C0003FE03FE43FE73FEA3FED3FF03FF33FF695
:1048D0003FF93FFF3F0340064009400C400F4012A4
:1048E00040154018401B401E402240254028402BC8
:1048F000402E40314037403A403D404140444047DF
:10490000404A404D4050405340564059405C406002
:10491000406340664069406F407240754078407B1C
:10492000407F408240854088408B408E409140943B
:104930004097409A409E40A140A740AA40AD40B059
:1049400040B340B640B940BD40C040C340C640C976
:1049500040CC40CF40D240D540D840DF40E240E597
:1049600040E840EB40EE40F140F440F740FB40FEB1
:10497000400141044107410A410D41104116411ACD
:10498000411D4120412341264129412C412F4132E3
:1049900041354139413C413F41424145414B414E06
:1049A000415141544158415B415E4161416441671D
:1049B000416A416D417041734177417A417D418344
:1049C00041864189418C418F419241964199419C58
:1049D000419F41A241A541A841AB41AE41B141B582
:1049E00041BB41BE41C141C441C741CA41CD41D093
:1049F00041D441D741DA41DD41E041E341E641E9BB
:104A000041EF41F341F641F941FC41FF41024205CA
:104A10004208420B420E421242154218421B421EED
:104A200042214227422A422D423142344237423A01
:104A3000423D4240424342464249424C4250425328
:104A40004256425C425F426242654268426B426F3C
:104A5000427242754278427B427E42814284428762
:104A6000428A428E42944297429A429D42A042A379
:104A700042A642A942AD42B042B342B642B942BC9C
:104A800042BF42C242C842CC42CF42D242D542D8B3
:104A900042DB42DE42E142E442E742EB42EE42F1D7
:104AA00042F442F742FD420043034306430A430DEA
:104AB0004310431343164319431C431F432243250A
:104AC0004329432C432F43354338433B433E434123
:104AD00043444348434B434E435143544357435A43
:104AE000435D43604363436A436D4370437343765E
:104AF0004379437C437F438243864389438C438F7E
:104B0000439243954398439E43A143A543A843AB97
:104B100043AE43B143B443B743BA43BD43C043C4B8
:104B200043C743CA43CD43D343D643D943DC43DFD2
:104B300043E343E643E943EC43EF43F243F543F8F1
:104B400043FB43FE43024408440B440E4411441407
:104B50004417441A441D442144244427442A442D24
:104B6000443044334436443C44404443444644493E
:104B7000444C444F445244554458445B445F44625F
:104B800044654468446B447144744477447A447E79
:104B9000448144844487448A448D44904493449699
:104BA0004499449D44A044A644A944AC44AF44B2B3
:104BB00044B544B844BC44BF44C244C544C844CBD3
:104BC00044CE44D144D444DB44DE44E144E444E7ED
:104BD00044EA44ED44F044F344F644FA44FD44000E
:104BE000450345064509450F451245154519451C20
:104BF000451F452245254528452B452E4531453441
:104C00004538453B453E45444547454A454D455059
:104C100045534557455A455D456045634566456979
:104C2000456C456F45724579457C457F4582458594
:104C30004588458B458E459145954598459B459EB4
:104C400045A145A445AA45AD45B045B445B745BACB
:104C500045BD45C045C345C645C945CC45CF45D3EF
:104C600045D645D945DF45E245E545E845EB45EE06
:104C700045F245F545F845FB45FE45014604460726
:104C8000460A460D46144617461A461D4620462338
:104C900046264629462C4630463346364639463C5B
:104CA000463F46454648464B464F4652465546586F
:104CB000465B465E466146644667466A466E467196
:104CC0004674467A467D4680468346864689468DAA
:104CD0004690469346964699469C469F46A246A5D0
:104CE00046A846AF46B246B546B846BB46BE46C1E4
:104CF00046C446C746CB46CE46D146D446D746DA0A
:104D000046E046E346E646EA46ED46F046F346F61A
:104D100046F946FC46FF460247054709470C470F40
:104D200047154718471B471E472147244728472B4D
:104D3000472E473147344737473A473D4740474773
:104D4000474A474D4750475347564759475C475F87
:104D5000476247664769476C476F47724778477BAA
:104D6000477E478147854788478B478E47914794C1
:104D70004797479A479D47A047A447A747AD47B0E5
:104D800047B347B647B947BC47BF47C347C647C9FC
:104D900047CC47CF47D247D547D847DE47E247E51C
:104DA00047E847EB47EE47F147F447F747FA47FD37
:104DB000470148044807480A48104813481648194C
:104DC000481C4820482348264829482C482F483268
:104DD00048354838483B484248454848484B484E83
:104DE000485148544857485A485E486148644867A3
:104DF000486A486D487048764879487D48804883BD
:104E000048864889488C488F489248954898489CDD
:104E1000489F48A248A848AB48AE48B148B448B7F4
:104E200048BB48BE48C148C448C748CA48CD48D016
:104E300048D348DA48DD48E048E348E648E948EC2A
:104E400048EF48F248F548F948FC48FF4802490550
:104E5000490B490E491149144918491B491E49215A
:104E600049244927492A492D493049334937493D81
:104E70004940494349464949494C494F4952495695
:104E80004959495C495F496249654968496E4971B8
:104E900049754978497B497E498149844987498ACE
:104EA000498D499049944997499A49A049A349A6EF
:104EB00049A949AC49AF49B349B649B949BC49BF09
:104EC00049C249C549C849CB49D249D549D849DB26
:104ED00049DE49E149E449E749EA49ED49F149F444
:104EE00049F749FA49FD49034A064A094A0C4A105A
:104EF0004A134A164A194A1C4A1F4A224A254A2876
:104F00004A2B4A2F4A354A384A3B4A3E4A414A448C
:104F10004A474A4A4A4E4A514A544A574A5A4A5DAF
:104F20004A634A664A694A6D4A704A734A764A79C0
:104F30004A7C4A7F4A824A854A884A8C4A8F4A95E7
:104F40004A984A9B4A9E4AA14AA44AA74AAB4AAEFB
:104F50004AB14AB44AB74ABA4ABD4AC04AC64ACA1E
:104F60004ACD4AD04AD34AD64AD94ADC4ADF4AE235
:104F70004AE54AE94AEC4AEF4AF24AF84AFB4AFE55
:104F80004A014B044B084B0B4B0E4B114B144B1768
:104F90004B1A4B1D4B204B274B2A4B2D4B304B3381
:104FA0004B364B394B3C4B3F4B424B464B494B4CA2
:104FB0004B4F4B524B584B5B4B5E4B614B654B68B9
:104FC0004B6B4B6E4B714B744B774B7A4B7D4B80DD
:104FD0004B874B8A4B8D4B904B934B964B994B9CED
:104FE0004B9F4BA34BA64BA94BAC4BAF4BB24BB813
:104FF0004BBB4BBE4BC24BC54BC84BCB4BCE4BD127
:105000004BD44BD74BDA4BDD4BE14BE44BEA4BED4A
:105010004BF04BF34BF64BF94BFC4B004C034C065F
:105020004C094C0C4C0F4C124C184C1B4C1F4C2276
:105030004C254C284C2B4C2E4C314C344C374C3A94
:105040004C3E4C414C474C4A4C4D4C504C534C56AA
:105050004C594C5D4C604C634C664C694C6C4C6FCD
:105060004C724C784C7C4C7F4C824C854C884C8BE1
:105070004C8E4C914C944C974C9B4C9E4CA14CA705
:105080004CAA4CAD4CB04CB34CB64CBA4CBD4CC019
:105090004CC34CC64CC94CCC4CCF4CD24CD94CDC3C
:1050A0004CDF4CE24CE54CE84CEB4CEE4CF14CF454
:1050B0004CF84CFB4CFE4C014D074D0A4D0D4D106C
:1050C0004D134D174D1A4D1D4D204D234D264D2985
:1050D0004D2C4D2F4D364D394D3C4D3F4D424D459C
:1050E0004D484D4B4D4E4D514D554D584D5B4D5EC0
:1050F0004D614D674D6A4D6D4D704D744D774D7AD4
:105100004D7D4D804D834D864D894D8C4D8F4D96F7
:105110004D994D9C4D9F4DA24DA54DA84DAB4DAE0B
:105120004DB24DB54DB84DBB4DBE4DC44DC74DCA2A
:105130004DCD4DD14DD44DD74DDA4DDD4DE04DE344
:105140004DE64DE94DEC4DF34DF64DF94DFC4DFF5F
:105150004D024E054E084E0B4E0F4E124E154E1878
:105160004E1B4E214E244E274E2A4E2E4E314E348B
:105170004E374E3A4E3D4E404E434E464E494E50AF
:105180004E534E564E594E5C4E5F4E624E654E68C3
:105190004E6C4E6F4E724E754E784E7E4E814E84E2
:1051A0004E874E8B4E8E4E914E944E974E9A4E9DFC
:1051B0004EA04EA34EA64EAD4EB04EB34EB64EB917
:1051C0004EBC4EBF4EC24EC54EC94ECC4ECF4ED237
:1051D0004ED54EDB4EDE4EE14EE44EE84EEB4EEE4B
:1051E0004EF14EF44EF74EFA4EFD4E004F034F0A6D
:1051F0004F0D4F104F134F164F194F1C4F1F4F227B
:105200004F264F294F2C4F2F4F324F384F3B4F3E99
:105210004F414F454F484F4B4F4E4F514F544F57B3
:105220004F5A4F5D4F604F674F6A4F6D4F704F73CE
:105230004F764F794F7C4F7F4F834F864F894F8CEE
:105240004F8F4F954F984F9B4F9E4FA24FA54FA802
:105250004FAB4FAE4FB14FB44FB74FBA4FBD4FC426
:105260004FC74FCA4FCD4FD04FD34FD64FD94FDC3A
:105270004FE04FE34FE64FE94FEC4FF24FF54FF859
:105280004FFB4FFF4F0250055008500B500E50116E
:105290005014500011241FBECFEFCDBFDFE3DEBF9F
:1052A00000E00CBF18BE19BE1ABE1BBE11E2A0E082
:1052B000B0E2E4E6F3E701E00BBF02C007900D9215
:1052C000AC38B107D9F71BBE29E2ACE8B1E201C0A6
:1052D0001D92AF3BB207E1F70E94E0B30C948EB988
:1052E0000C940000CF93DF931F92CDB7DEB7898374
:1052F0008981882F90E08230910589F08330910573
:105300001CF4019739F01AC08430910569F00897B0
:1053100081F014C080E894E8AEE1B0E012C080E013
:105320009CE6ACEDB2E00DC080E090E8A0E0B0E01B
:1053300008C080E094E2A4EFB0E003C080E090E019
:10534000DC01BC01CD010F90DF91CF910895CF9387
:10535000DF93CDB7DEB72997CDBFDEBF8D836E83D8
:105360007F83488759878D81882F90E08038910509
:1053700079F0803C9105A9F0892B09F01BC080E8E9
:1053800094E8AEE1B0E089839A83AB83BC8312C01A
:1053900080E09BE1A7EBB0E089839A83AB83BC8379
:1053A00009C088E09FDFDC01CB0189839A83AB834E
:1053B000BC8300008E819F81CC01A0E0B0E02981F8
:1053C0003A814B815C81BC01CD010E94D8B6DC01E1
:1053D000CB0189839A83AB83BC8389819A81AB811A
:1053E000BC81BC01CD012996CDBFDEBFDF91CF913D
:1053F0000895CF93DF93CDB7DEB741E050E062E090
:1054000070E080ECA4DFDC01CB01BC01CD01DF91B9
:10541000CF910895CF93DF931F92CDB7DEB7198256
:10542000E8DFDC01CB012981222F30E004C0B695F2
:10543000A795979587952A95D2F7BC01CD010F9036
:10544000DF91CF910895CF93DF93CDB7DEB7E2DF41
:10545000DC01CB01BC01CD01DF91CF910895CF9349
:10546000DF93CDB7DEB7EFDFDC01CB01BC01CD01AF
:10547000DF91CF910895CF93DF93CDB7DEB72D970E
:10548000CDBFDEBF888799874A875B876C877D871A
:10549000E6DFDC01CB018A839B83AC83BD838A81F9
:1054A0009B81AC81BD812A853B854C855D85BC0196
:1054B000CD010E94FBB6DA01C9018E839F838E81E4
:1054C0009F81059710F419822FC08E819F810997C3
:1054D00018F481E0898328C08E819F81419718F458
:1054E00082E0898321C08E819F81819718F483E0B7
:1054F00089831AC08E819F818134910518F484E0DC
:10550000898312C08E819F818138910518F485E0CE
:1055100089830AC08E819F818130914018F486E092
:10552000898302C087E08983888599852981FC0168
:10553000248300002D96CDBFDEBFDF91CF9108956B
:10554000CF93DF93CDB7DEB72597CDBFDEBF89837D
:105550009A836B834C832D8389819A81FC0181819D
:10556000282F297E89819A81FC01218389819A8152
:10557000FC0191812C818B81822B292F282B898101
:105580009A81FC01218389819A81FC018281282FE3
:105590002F7889819A81FC01228389819A81FC017B
:1055A00092818D81292F282B89819A81FC01228368
:1055B00000002596CDBFDEBFDF91CF910895CF9338
:1055C000DF93CDB7DEB72597CDBFDEBF89839A8342
:1055D0006B834C832D838B81882F90E082309105E3
:1055E00011F1833091052CF4009771F00197B9F116
:1055F000A9C08430910509F453C084309105D4F1D9
:10560000059709F476C09EC089819A81FC01818149
:10561000282F277F89819A81FC01218389819A81A2
:10562000FC0113828FC089819A81FC018181282F1E
:10563000277F89819A81FC0121838D81882F90E0C9
:10564000880F991F880F991F880F991F982F8C8199
:10565000892B282F89819A81FC01238373C089813A
:105660009A81FC018181282F286089819A81FC011F
:10567000218368C089819A81FC018181282F28605B
:1056800089819A81FC0121838C818150282F229568
:10569000220F220F207C89819A81FC01238352C032
:1056A00089819A81FC018181282F277F89819A81B4
:1056B000FC0121838C81882F90E00197002496952E
:1056C00087950794969587950794982F802D282F76
:1056D0008D81882F90E0880F991F880F991F880F60
:1056E000991F822B8560282F89819A81FC01238351
:1056F00029C089819A81FC018181282F277F898196
:105700009A81FC0121838C81882F90E001970024ED
:10571000969587950794969587950794982F802D51
:10572000282F8D81882F90E0880F991F880F991F4F
:10573000880F991F822B8660282F89819A81FC010E
:105740002383000000002596CDBFDEBFDF91CF91FF
:105750000895CF93DF931F92CDB7DEB789838981F8
:10576000882F90E08830910551F1893091057CF4C3
:1057700081309105F1F0823091051CF4892BB9F04C
:1057800028C082309105B9F00497B9F022C0803268
:105790009105C9F0813291051CF4409791F019C030
:1057A0008034910591F08F3F910589F012C08CE112
:1057B00011C080E00FC084E00DC088E00BC08CE019
:1057C00009C080E107C084E105C088E103C080E032
:1057D00001C080E00F90DF91CF910895CF93DF93C8
:1057E000CDB7DEB72597CDBFDEBF89839A836B83A4
:1057F0004C832D838B81803178F089819A81FC01E3
:1058000010828B818051282F220F220F220F898135
:105810009A81FC01218387C08C818A3079F4898147
:105820009A8121E0FC0120838B81282F220F220FF7
:10583000220F89819A81FC01218375C08C8184307B
:10584000B8F489819A8122E0FC0120838B81882F22
:1058500090E0880F991F880F991F880F991F982F24
:105860008C81892B282F89819A81FC0121835BC03F
:105870008C818830D8F48D816CDF282F236089815A
:105880009A81FC0120838B81882F90E0880F991FDB
:10589000880F991F880F991F982F8C818450892B0E
:1058A000282F89819A81FC0121833DC08D8181301F
:1058B000E1F489819A8122E0FC0120838B81882F89
:1058C00090E0880F991F880F991F880F991F982FB4
:1058D0008C81883011F485E001C087E0892B282F66
:1058E00089819A81FC0121831EC08D8132DF282F9E
:1058F000236089819A81FC0120838B81882F90E02D
:10590000880F991F880F991F880F991F982F8C81D6
:10591000893011F484E001C087E0892B282F898128
:105920009A81FC01218300002596CDBFDEBFDF9167
:10593000CF910895CF93DF93CDB7DEB72B97CDBF2F
:10594000DEBFCE010196BC0180E092E00E941F966E
:10595000CE010896AC0161E080E092E00E94E896FA
:10596000CE01089621E04AE061E038DF20E140E026
:1059700060E1CE010196E4DD20E041E063E0CE018C
:1059800001961DDE44E254EF60E070E0CE01019626
:1059900072DDCE010196BC0180E092E00E94A595E7
:1059A000CE010896AC0161E080E092E00E94719621
:1059B00080E092E00E94FE8600002B96CDBFDEBF05
:1059C000DF91CF910895CF93DF93CDB7DEB782E01B
:1059D0000E94EB5D0000DF91CF910895EF92FF925E
:1059E0000F931F93CF93DF93CDB7DEB72A97CDBF29
:1059F000DEBF69837A838B839C834D835E830F83B1
:105A0000188729873A872F81388549855A856D817E
:105A10007E8189819A81AB81BC8179018A019B0158
:105A2000AC01BD0182E00E94505E00002A96CDBF0D
:105A3000DEBFDF91CF911F910F91FF90EF900895FE
:105A4000EF92FF920F931F93CF93DF93CDB7DEB703
:105A50002A97CDBFDEBF69837A838B839C834D8376
:105A60005E830F83188729873A872F813885498578
:105A70005A856D817E8189819A81AB81BC81790152
:105A80008A019B01AC01BD0182E00E94FE5D000025
:105A90002A96CDBFDEBFDF91CF911F910F91FF906E
:105AA000EF900895EF92FF920F931F93CF93DF93A0
:105AB000CDB7DEB72A97CDBFDEBF69837A838B83EC
:105AC0009C834D835E830F83188729873A872F81B4
:105AD000388549855A856D817E8189819A81AB811E
:105AE000BC8179018A019B01AC01BD0182E00E9469
:105AF000505E00002A96CDBFDEBFDF91CF911F918F
:105B00000F91FF90EF900895EF92FF920F931F93E4
:105B1000CF93DF93CDB7DEB72A97CDBFDEBF6983C2
:105B20007A838B839C834D835E830F8318872987B9
:105B30003A872F81388549855A856D817E81898193
:105B40009A81AB81BC8179018A019B01AC01BD01C5
:105B500082E00E94FE5D00002A96CDBFDEBFDF918D
:105B6000CF911F910F91FF90EF900895CF93DF9306
:105B70001F92CDB7DEB78FE390E0FC01808189836F
:105B8000F89489810F90DF91CF910895CF93DF939F
:105B90001F92CDB7DEB789838FE390E02981FC01A6
:105BA000208300000F90DF91CF910895CF93DF9372
:105BB000CDB7DEB780EA90E027E0FC012283000049
:105BC000DF91CF910895CF93DF9300D01F92CDB78F
:105BD000DEB78C83CBDF89838C81882F90E0419660
:105BE00082959295907F9827807F98278A839B83C0
:105BF0008A819B81FC018081282F20688A819B817A
:105C0000FC0120838981C2DF00002496CDBFDEBF66
:105C1000DF91CF910895CF93DF9300D0CDB7DEB75A
:105C200089839A836B8389819A81FC018081282FE3
:105C30002C7F89819A81FC01208389819A81FC01D2
:105C400090818B81292F282B89819A81FC012083C7
:105C500000002396CDBFDEBFDF91CF910895CF9393
:105C6000DF9300D0CDB7DEB789839A836B838981B8
:105C70009A81FC018281282F2F7389819A81FC01EE
:105C8000228389819A81FC0192818B81292F282B83
:105C900089819A81FC01228300002396CDBFDEBF5B
:105CA000DF91CF910895CF93DF9300D0CDB7DEB7CA
:105CB00089839A836B8389819A81FC018281282F51
:105CC000237F89819A81FC01228389819A81FC0149
:105CD00092818B81292F282B89819A81FC01228333
:105CE00000002396CDBFDEBFDF91CF910895CF9303
:105CF000DF9300D0CDB7DEB789839A836B83898128
:105D00009A81FC018281282F2F7C89819A81FC0154
:105D1000228389819A81FC0192818B81292F282BF2
:105D200089819A81FC01228300002396CDBFDEBFCA
:105D3000DF91CF910895CF93DF9300D0CDB7DEB739
:105D400089839A836B8389819A81FC018281282FC0
:105D50002C7F89819A81FC01228389819A81FC01AF
:105D600092818B81292F282B89819A81FC012283A2
:105D700000002396CDBFDEBFDF91CF910895CF9372
:105D8000DF9300D0CDB7DEB789839A836B83898197
:105D90009A812B81FC01238300002396CDBFDEBFB7
:105DA000DF91CF910895CF93DF9300D01F92CDB7AD
:105DB000DEB789839A836B837C8389819A812B8167
:105DC0003C81FC012483358300002496CDBFDEBFD7
:105DD000DF91CF910895CF93DF9300D0CDB7DEB799
:105DE00089839A836B8389819A81FC018081282F22
:105DF000206289819A81FC01208389819A812B818B
:105E0000FC01268300002396CDBFDEBFDF91CF913A
:105E10000895CF93DF9300D01F92CDB7DEB789836B
:105E20009A836B837C8389819A812B813C81FC01DD
:105E30002187328700002496CDBFDEBFDF91CF914E
:105E40000895CF93DF9300D01F92CDB7DEB789833B
:105E50009A836B837C8389819A812B813C81FC01AD
:105E60002783308700002496CDBFDEBFDF91CF911E
:105E70000895CF93DF93CDB7DEB72797CDBFDEBFB1
:105E80008D836E837F838D8189838981882F90E0C4
:105E90009C012770332781E090E002C0880F991F92
:105EA0002A95E2F7682F8D818A838A818B838B8183
:105EB0008695869586958C838C81882F90E0880FB7
:105EC000991F82959295907F9827807F98279A5F57
:105ED0009C018E819F81AC01C9010E945F970000E7
:105EE0002796CDBFDEBFDF91CF910895CF93DF938B
:105EF000CDB7DEB72A97CDBFDEBF8A878A85898373
:105F00001A8289818B838B818C838C81869586957F
:105F100086958D838D81882F90E0880F991F8295BB
:105F20009295907F9827807F98279A5F8E839F8392
:105F30008A818823A9F0898188878885882F90E0C5
:105F40009C012770332781E090E002C0880F991FE1
:105F50002A95E2F7282F8E819F81FC01258314C0AA
:105F6000898189878985882F90E09C012770332754
:105F700081E090E002C0880F991F2A95E2F7282F50
:105F80008E819F81FC01268300002A96CDBFDEBF53
:105F9000DF91CF910895CF93DF93CDB7DEB72A97E6
:105FA000CDBFDEBF8A878A85898381E08A83898124
:105FB0008B838B818C838C818695869586958D834A
:105FC0008D81882F90E0880F991F82959295907F00
:105FD0009827807F98279A5F8E839F838A81882362
:105FE000A9F0898188878885882F90E09C01277097
:105FF000332781E090E002C0880F991F2A95E2F7CD
:10600000282F8E819F81FC01258314C08981898777
:106010008985882F90E09C012770332781E090E0EC
:1060200002C0880F991F2A95E2F7282F8E819F8141
:10603000FC01268300002A96CDBFDEBFDF91CF9101
:106040000895CF93DF93CDB7DEB70000DF91CF91F6
:106050000895CF93DF93CDB7DEB72B97CDBFDEBFCB
:106060008A876B878A8589838B858A8389818B83DD
:106070008B818C838C818695869586958D838D8189
:10608000882F90E0880F991F82959295907F98278E
:10609000807F98279A5F8E839F838A818130A9F4BD
:1060A000898188878885882F90E09C012770332715
:1060B00081E090E002C0880F991F2A95E2F7282F0F
:1060C0008E819F81FC01218317C08A818823A1F4DE
:1060D000898189878985882F90E09C0127703327E3
:1060E00081E090E002C0880F991F2A95E2F7282FDF
:1060F0008E819F81FC01228300002B96CDBFDEBFE5
:10610000DF91CF910895CF93DF93CDB7DEB7289776
:10611000CDBFDEBF88878885898389818A838A810C
:106120008B838B818695869586958C838C81882F31
:1061300090E0880F991F82959295907F9827807F95
:1061400098279A5F8D839E838D819E81FC01408577
:1061500089818F838F81882F90E09C01277033275E
:1061600081E090E002C0880F991F2A95E2F7942FF2
:10617000982381E0992309F480E02896CDBFDEBF03
:10618000DF91CF910895CF93DF9300D0CDB7DEB7E5
:1061900089839A836B8389819A81FC018681282F68
:1061A0002C7F89819A81FC01268389819A81FC0157
:1061B00096818B81292F282B89819A81FC01268346
:1061C00000002396CDBFDEBFDF91CF910895CF931E
:1061D000DF9300D0CDB7DEB789839A836B83898143
:1061E0009A81FC018781282F2C7F89819A81FC016B
:1061F000278389819A81FC0197818B81292F282B04
:1062000089819A81FC01278300002396CDBFDEBFE0
:10621000DF91CF910895CF93DF9300D0CDB7DEB754
:1062200089839A836B8389819A81FC018781282FD6
:10623000237F89819A81FC01278389819A81FC01CE
:106240008781282F8B81882F90E0880F991F880FD6
:10625000991F822B282F89819A81FC0127830000B6
:106260002396CDBFDEBFDF91CF910895CF93DF930B
:1062700000D0CDB7DEB789839A836B8389819A81F9
:10628000FC018081982F907F8B81892B282F898119
:106290009A81FC01208300002396CDBFDEBFDF91F1
:1062A000CF910895CF93DF9300D01F92CDB7DEB783
:1062B00089839A836B837C8389819A812B813C813A
:1062C000FC0126A337A300002496CDBFDEBFDF91DB
:1062D000CF910895CF93DF931F921F92CDB7DEB772
:1062E00089839A8389819A81FC018485282F216082
:1062F00089819A81FC01248700000F900F90DF9123
:10630000CF910895CF93DF9300D0CDB7DEB78983C7
:106310009A836B8389819A8180749927892B61F490
:1063200089819A81FC0191818B81292F282B898178
:106330009A81FC01218313C089819A8180749927F5
:10634000892B69F089819A81FC018181982F8B8149
:106350008073892B282F89819A81FC012183000079
:106360002396CDBFDEBFDF91CF910895CF93DF930A
:1063700000D0CDB7DEB789839A836B8389819A81F8
:1063800080749927892B51F58B81882F90E082307A
:10639000910591F0833091051CF4019739F03CC0D0
:1063A0008330910579F0049799F036C089819A81FC
:1063B000FC0180A591A532C089819A81FC0182A54A
:1063C00093A52CC089819A81FC0184A595A526C03E
:1063D00089819A81FC0186A597A520C089819A812F
:1063E00080749927892BC1F08B81882F90E08130B0
:1063F000910519F0029739F00CC089819A81FC014E
:1064000080A591A50BC089819A81FC0182A593A5E5
:1064100005C080E090E002C080E090E02396CDBF10
:10642000DEBFDF91CF910895CF93DF93CDB7DEB775
:106430002597CDBFDEBF89839A836B834C835D83B1
:1064400089819A8180749927892B99F58B81882F6E
:1064500090E082309105A1F0833091051CF4019702
:1064600039F046C08330910599F00497C9F040C0D7
:1064700089819A812C813D81FC0120A731A738C0F8
:1064800089819A812C813D81FC0122A733A730C0EC
:1064900089819A812C813D81FC0124A735A728C0E0
:1064A00089819A812C813D81FC0126A737A70000B4
:1064B0001FC089819A8180749927892BC9F08B81AB
:1064C000882F90E08130910519F0029749F010C0B3
:1064D00089819A812C813D81FC0120A731A708C0C8
:1064E00089819A812C813D81FC0122A733A700007C
:1064F0002596CDBFDEBFDF91CF910895CF93DF9377
:1065000000D0CDB7DEB789839A836B8389819A8166
:10651000FC018181982F987F8B81892B282F89817D
:106520009A81FC01218300002396CDBFDEBFDF915D
:10653000CF9108951F920F9200903F000F92112467
:10654000009038000F9210923800009039000F929E
:106550001092390000903A000F9210923A00009089
:106560003B000F9210923B002F933F934F935F930A
:106570006F937F938F939F93AF93BF93EF93FF930B
:10658000CF93DF931F92CDB7DEB719828AE0BBDDD0
:1065900089838981882341F480912F28813021F4D7
:1065A0008DE298E20E94108F82E08093AC2100007F
:1065B0000F90DF91CF91FF91EF91BF91AF919F919C
:1065C0008F917F916F915F914F913F912F910F909C
:1065D00000923B000F9000923A000F900092390019
:1065E0000F90009238000F9000923F000F901F9084
:1065F00018951F920F9200903F000F921124009067
:1066000038000F921092380000903A000F921092CA
:106610003A008F93CF93DF93CDB7DEB781E08093BD
:10662000B8210000DF91CF918F910F9000923A0036
:106630000F90009238000F9000923F000F901F9033
:106640001895CF93DF931F92CDB7DEB780918C2141
:1066500090918D21A0918E21B0918F210196A11D45
:10666000B11D80938C2190938D21A0938E21B093A6
:106670008F218091902190919121A0919221B091B0
:1066800093210196A11DB11D80939021909391219A
:10669000A0939221B0939321809194219091952180
:1066A000A0919621B09197210196A11DB11D8093D3
:1066B000942190939521A0939621B0939721809156
:1066C000982190919921A0919A21B0919B210196B6
:1066D000A11DB11D8093982190939921A0939A2197
:1066E000B0939B2180919C2190919D21A0919E210E
:1066F000B0919F210196A11DB11D80939C21909383
:106700009D21A0939E21B0939F218091A8219091DB
:10671000A921A091AA21B091AB210196A11DB11D83
:106720008093A8219093A921A093AA21B093AB2193
:106730008091A4219091A521A091A621B091A7219B
:106740000196A11DB11D8093A4219093A521A09332
:10675000A621B093A721198233C08981282F30E068
:1067600047E4429FC001439F900D1124805D974DE7
:10677000FC018081882309F18981282F30E047E4DA
:10678000429FC001439F900D11248F5C974DFC01E7
:1067900080819181A281B3810196A11DB11D67E421
:1067A000629FA001639F500D11249A012F5C374D09
:1067B000F90180839183A283B38389818F5F898369
:1067C0008981843050F280E498E084DD00000F90ED
:1067D000DF91CF910895CF93DF93CDB7DEB780914E
:1067E000B721882311F081E1D6DB0000DF91CF9142
:1067F0000895CF93DF93CDB7DEB78091B52188237D
:1068000011F082E2C8DB0000DF91CF910895CF93B1
:10681000DF93CDB7DEB78091B721882311F081E1F6
:1068200065DB8091B521882311F082E25FDB0000F7
:10683000DF91CF910895EF92FF920F931F93CF9323
:10684000DF93CDB7DEB780914B28882309F43EC093
:106850008091492890914A28CC01A0E0B0E0BC0189
:10686000CD010E9428B57B018C018091D5219091AA
:10687000D621A091D721B091D8219C01AD01C801AA
:10688000B7010E9428B6181654F4809149289091B7
:106890004A2801978093492890934A2817C08091ED
:1068A0003028882321F08DE298E20E94108F809199
:1068B000492890914A28892B49F080914928909144
:1068C0004A2801978093492890934A280000DF9135
:1068D000CF911F910F91FF90EF900895EF92FF924B
:1068E0000F931F93CF93DF93CDB7DEB7809192289C
:1068F000882309F43EC08091902890919128CC0182
:10690000A0E0B0E0BC01CD010E9428B57B018C0164
:106910008091D9219091DA21A091DB21B091DC21E5
:106920009C01AD01C801B7010E9428B6181654F4A5
:10693000809190289091912801978093902890932E
:10694000912817C080917728882321F084E798E266
:106950000E94108F8091902890919128892B49F066
:1069600080919028909191280197809390289093FE
:1069700091280000DF91CF911F910F91FF90EF9030
:106980000895EF92FF920F931F93CF93DF93CDB7AC
:10699000DEB78091D928882309F43EC08091D7289A
