:100000000C9449290C946F290C9460320C946F293C
:100010000C946F290C946F290C946A660C94B76643
:100020000C9404670C9451670C9426680C945668E1
:100030000C946F290C946F290C9446980C949D98FD
:100040000C94F4980C944B990C94A2990C94F999F3
:100050000C94509A0C94A79A0C94FE9A0C94559B6D
:100060000C946F290C946F290C946F290C946F29B0
:100070000C946F290C946F290C946F290C946F29A0
:100080000C946F290C946F290C9401320C946F29F5
:100090000C946F290C946F290C946F290C94458C47
:1000A0000C94D18C0C945D8D0C94E98D0C946F297B
:1000B0000C946F290C946F290C946F290C94129F47
:1000C0000C94699F0C94C09F0C9417A00C946EA084
:1000D0000C94C5A00C941CA10C9473A10C94CAA1FF
:1000E0000C9421A20C946F290C946F290C946F2905
:1000F0000C946F290C946F290C946F290C946F2920
:100100000C946F290C946F290C946F290C946F290F
:100110000C946F290C946F290C946F290C94158AF8
:100120000C94A18A0C942D8B0C94B98B0C946F2990
:100130000C946F290C94AC9B0C94039C0C945A9CCB
:100140000C94B19C0C94089D0C945F9D0C94B69DEE
:100150000C940D9E0C94649E0C94BB9E0C946F2981
:100160000C946F290C946F290C946F290C946F29AF
:100170000C946F290C946F290C946F290C946F299F
:100180000C946F290C946F290C946F290C946F298F
:100190000C946F290C946F290C946F290C946F297F
:1001A0000C946F290C946F290C946F290C946F296F
:1001B0000C9478A20C94CFA20C9426A30C947DA34B
:1001C0000C94D4A30C942BA40C9482A40C94D9A4C6
:1001D0000C9430A50C9487A50C946F290C946F296E
:1001E0000C946F290C946F290C946F290C946F292F
:1001F0000C946F290C940C6D0C94C66DAD3DFF3DB5
:10020000473F1F405D40464132431E44AD454C468A
:10021000F047BA480449474AEA4A564B9D4B3C4C82
:10022000254DF24D204EE150E850EF50F65032513E
:100230006E51AD5167726A726D72707273727672BE
:10024000797201AB22AB43AB64AB85ABA6ABC7AB5A
:10025000E8AB4E414E494E495459494E46CDCCCC5F
:100260003D0AD7233C17B7D13877CC2B329595E68A
:10027000241FB14F0A000020410000C84200401C6A
:100280004620BCBE4CCA1B0E5AAEC59D74EB10CBAB
:10029000113A10AA0F300FC70E6B0E190ED00D8F2A
:1002A0000D520D1B0DE80CB90C8D0C640C3E0C1995
:1002B0000CF70BD70BB80B9B0B7F0B640B4A0B3265
:1002C0000B1B0B040BEF0ADA0AC60AB20A9F0A8D4F
:1002D0000A7C0A6B0A5A0A4A0A3B0A2C0A1D0A0FB0
:1002E0000A010AF309E609D909CC09C009B409A829
:1002F000099D09920987097C09710967095D0953FC
:10030000094909400936092D0924091B0912090A5E
:10031000090109F908F108E908E108D908D208CA71
:1003200008C308BC08B408AD08A608A0089908923C
:10033000088B0885087F08780872086C08660860D2
:10034000085A0854084E08480843083D083808323F
:10035000082D08280822081D08180813080E080987
:10036000080408FF07FA07F507F107EC07E707E3BA
:1003700007DE07DA07D507D107CD07C807C407C0CE
:1003800007BC07B707B307AF07AB07A707A3079FCC
:10039000079B079707940790078C078807840781B6
:1003A000077D077A07760772076F076B0768076490
:1003B0000761075E075A075707530750074D074A5B
:1003C000074607430740073D073A0737073307301B
:1003D000072D072A072707240721071E071B0719D0
:1003E000071607130710070D070A07080705070276
:1003F00007FF06FD06FA06F706F406F206EF06ED1D
:1004000006EA06E706E506E206E006DD06DB06D8B4
:1004100006D606D306D106CE06CC06C906C706C444
:1004200006C206C006BD06BB06B906B606B406B2CD
:1004300006B006AD06AB06A906A706A406A206A04E
:10044000069E069C06990697069506930691068FCA
:10045000068D068A06880686068406820680067E43
:10046000067C067A06780676067406720670066EB4
:10047000066C066A06680667066506630661065F1F
:10048000065D065B06590657065606540652065088
:10049000064E064C064B06490647064506440642EC
:1004A0000640063E063D063B06390637063606344C
:1004B00006320631062F062D062C062A06280627A8
:1004C0000625062306220620061E061D061B061A02
:1004D000061806160615061306120610060F060D58
:1004E000060B060A060806070605060406020601AC
:1004F00006FF05FE05FC05FB05F905F805F605F503
:1005000005F305F205F105EF05EE05EC05EB05E950
:1005100005E805E705E505E405E205E105DF05DE9B
:1005200005DD05DB05DA05D905D705D605D405D3E4
:1005300005D205D005CF05CE05CC05CB05CA05C82B
:1005400005C705C605C505C305C205C105BF05BE6E
:1005500005BD05BB05BA05B905B805B605B505B4B1
:1005600005B305B105B005AF05AE05AC05AB05AAF1
:1005700005A905A805A605A505A405A305A105A02F
:10058000059F059E059D059C059A0599059805976B
:10059000059605940593059205910590058F058EA6
:1005A000058C058B058A05890588058705860584E0
:1005B0000583058205810580057F057E057D057C17
:1005C000057B05790578057705760575057405734E
:1005D000057205710570056F056E056D056B056A81
:1005E00005690568056705660565056405630562B7
:1005F00005610560055F055E055D055C055B055AE7
:100600000559055805570556055505540553055216
:1006100005510550054F054E054D054C054B054A46
:100620000549054805470546054505440543054276
:1006300005410540053F053E053D053C053C053BA4
:10064000053A0539053805370536053505340533CE
:10065000053205310530052F052F052E052D052CFA
:10066000052B052A05290528052705260525052525
:1006700005240523052205210520051F051E051D4E
:10068000051D051C051B051A051905180517051775
:10069000051605150514051305120511051005109D
:1006A000050F050E050D050C050B050B050A0509C3
:1006B00005080507050605060505050405030502E9
:1006C00005010501050005FF04FE04FD04FC04FC12
:1006D00004FB04FA04F904F804F804F704F604F53A
:1006E00004F404F404F304F204F104F004F004EF5D
:1006F00004EE04ED04EC04EC04EB04EA04E904E980
:1007000004E804E704E604E504E504E404E304E2A1
:1007100004E204E104E004DF04DF04DE04DD04DCC1
:1007200004DC04DB04DA04D904D904D804D704D6E1
:1007300004D604D504D404D304D304D204D104D001
:1007400004D004CF04CE04CD04CD04CC04CB04CB20
:1007500004CA04C904C804C804C704C604C504C53F
:1007600004C404C304C304C204C104C004C004BF5D
:1007700004BE04BE04BD04BC04BC04BB04BA04B97A
:1007800004B904B804B704B704B604B504B504B496
:1007900004B304B204B204B104B004B004AF04AEB4
:1007A00004AE04AD04AC04AC04AB04AA04AA04A9CE
:1007B00004A804A804A704A604A604A504A404A4E9
:1007C00004A304A204A204A104A004A0049F049E04
:1007D000049E049D049C049C049B049A049A04991E
:1007E0000498049804970496049604950495049438
:1007F000049304930492049104910490048F048F51
:10080000048E048E048D048C048C048B048A048A68
:100810000489048804880487048704860485048581
:100820000484048304830482048204810480048099
:10083000047F047F047E047D047D047C047B047BB0
:10084000047A047A047904780478047704770476C7
:1008500004750475047404740473047204720471DE
:1008600004710470046F046F046E046E046D046CF4
:10087000046C046B046B046A046A04690468046809
:10088000046704670466046504650464046404631F
:10089000046304620461046104600460045F045F33
:1008A000045E045D045D045C045C045B045B045A48
:1008B000045904590458045804570457045604555D
:1008C0000455045404540453045304520452045170
:1008D00004500450044F044F044E044E044D044D84
:1008E000044C044B044B044A044A04490449044898
:1008F00004480447044704460445044504440444AA
:1009000004430443044204420441044104400440BB
:10091000043F043E043E043D043D043C043C043BCF
:10092000043B043A043A04390439043804380437DF
:1009300004360436043504350434043404330433F3
:10094000043204320431043104300430042F042F03
:10095000042E042E042D042D042C042C042B042B13
:10096000042A042A04290428042804270427042626
:100970000426042504250424042404230423042237
:1009800004220421042104200420041F041F041E47
:10099000041E041D041D041C041C041B041B041A57
:1009A000041A041904190418041804170417041667
:1009B0000416041504150414041404130413041277
:1009C000041204110411041104100410040F040F84
:1009D000040E040E040D040D040C040C040B040B93
:1009E000040A040A040904090408040804070407A3
:1009F00004060406040504050404040404040403B2
:100A0000040304020402040104010400040004FFBE
:100A100003FF03FE03FE03FD03FD03FC03FC03FBD6
:100A200003FB03FB03FA03FA03F903F903F803F8E2
:100A300003F703F703F603F603F503F503F503F4F1
:100A400003F403F303F303F203F203F103F103F0FE
:100A500003F003EF03EF03EF03EE03EE03ED03ED0B
:100A600003EC03EC03EB03EB03EA03EA03EA03E919
:100A700003E903E803E803E703E703E603E603E625
:100A800003E503E503E403E403E303E303E203E232
:100A900003E103E103E103E003E003DF03DF03DE3F
:100AA00003DE03DD03DD03DD03DC03DC03DB03DB4B
:100AB00003DA03DA03DA03D903D903D803D803D757
:100AC00003D703D603D603D603D503D503D403D463
:100AD00003D303D303D303D203D203D103D103D06F
:100AE00003D003D003CF03CF03CE03CE03CD03CD7A
:100AF00003CD03CC03CC03CB03CB03CA03CA03CA85
:100B000003C903C903C803C803C703C703C703C690
:100B100003C603C503C503C403C403C403C303C39B
:100B200003C203C203C103C103C103C003C003BFA7
:100B300003BF03BF03BE03BE03BD03BD03BC03BCB1
:100B400003BC03BB03BB03BA03BA03BA03B903B9BB
:100B500003B803B803B703B703B703B603B603B5C7
:100B600003B503B503B403B403B303B303B303B2D0
:100B700003B203B103B103B003B003B003AF03AFDB
:100B800003AE03AE03AE03AD03AD03AC03AC03ACE5
:100B900003AB03AB03AA03AA03AA03A903A903A8EF
:100BA00003A803A803A703A703A603A603A603A5F8
:100BB00003A503A403A403A403A303A303A203A202
:100BC00003A203A103A103A003A003A0039F039F0B
:100BD000039E039E039E039D039D039C039C039C15
:100BE000039B039B039A039A039A0399039903991E
:100BF0000398039803970397039703960396039527
:100C0000039503950394039403930393039303922F
:100C10000392039203910391039003900390038F37
:100C2000038F038E038E038E038D038D038C038C41
:100C3000038C038B038B038B038A038A0389038949
:100C40000389038803880388038703870386038651
:100C5000038603850385038403840384038303835A
:100C60000383038203820381038103810380038062
:100C70000380037F037F037E037E037E037D037D6A
:100C8000037D037C037C037B037B037B037A037A72
:100C9000037A03790379037803780378037703777A
:100CA0000377037603760375037503750374037482
:100CB0000374037303730373037203720371037189
:100CC0000371037003700370036F036F036E036E91
:100CD000036E036D036D036D036C036C036C036B98
:100CE000036B036A036A036A0369036903690368A0
:100CF00003680368036703670366036603660365A7
:100D000003650365036403640364036303630362AD
:100D100003620362036103610361036003600360B4
:100D2000035F035F035F035E035E035D035D035DBB
:100D3000035C035C035C035B035B035B035A035AC2
:100D4000035A0359035903580358035803570357C9
:100D500003570356035603560355035503550354CF
:100D600003540354035303530352035203520351D6
:100D700003510351035003500350034F034F034FDC
:100D8000034E034E034E034D034D034C034C034CE3
:100D9000034B034B034B034A034A034A03490349EA
:100DA00003490348034803480347034703470346EF
:100DB00003460346034503450344034403440343F6
:100DC00003430343034203420342034103410341FC
:100DD000034003400340033F033F033F033E033E02
:100DE000033E033D033D033D033C033C033C033B07
:100DF000033B033B033A033A033A0339033903380D
:100E00000338033803370337033703360336033613
:100E10000335033503350334033403340333033319
:100E2000033303320332033203310331033103301E
:100E300003300330032F032F032F032E032E032E23
:100E4000032D032D032D032C032C032C032B032B29
:100E5000032B032A032A032A03290329032903282E
:100E60000328032803270327032703260326032633
:100E70000325032503250324032403240323032339
:100E8000032303220322032203210321032103203E
:100E900003200320031F031F031F031E031E031E43
:100EA000031D031D031D031C031C031C031B031B49
:100EB000031B031A031A031A03190319031903184E
:100EC0000318031803170317031703160316031653
:100ED0000316031503150315031403140314031356
:100EE000031303130312031203120311031103115B
:100EF000031003100310030F030F030F030E030E61
:100F0000030E030D030D030D030C030C030C030B65
:100F1000030B030B030A030A030A030A0309030969
:100F2000030903080308030803070307030703066D
:100F30000306030603050305030503040304030472
:100F40000303030303030302030203020302030177
:100F50000301030103000300030003FF02FF02FF7C
:100F600002FE02FE02FE02FD02FD02FD02FC02FC88
:100F700002FC02FB02FB02FB02FA02FA02FA02FA8C
:100F800002F902F902F902F802F802F802F702F790
:100F900002F702F602F602F602F502F502F502F495
:100FA00002F402F402F402F302F302F302F202F298
:100FB00002F202F102F102F102F002F002F002EF9D
:100FC00002EF02EF02EF02EE02EE02EE02ED02EDA0
:100FD00002ED02EC02EC02EC02EB02EB02EB02EAA5
:100FE00002EA02EA02EA02E902E902E902E802E8A8
:100FF00002E802E702E702E702E602E602E602E5AD
:1010000002E502E502E502E402E402E402E302E3AF
:1010100002E302E202E202E202E102E102E102E0B4
:1010200002E002E002E002DF02DF02DF02DE02DEB7
:1010300002DE02DD02DD02DD02DC02DC02DC02DCBB
:1010400002DB02DB02DB02DA02DA02DA02D902D9BF
:1010500002D902D802D802D802D802D702D702D7C2
:1010600002D602D602D602D502D502D502D402D4C7
:1010700002D402D402D302D302D302D202D202D2C9
:1010800002D102D102D102D002D002D002D002CFCE
:1010900002CF02CF02CE02CE02CE02CD02CD02CDD1
:1010A00002CD02CC02CC02CC02CB02CB02CB02CAD4
:1010B00002CA02CA02C902C902C902C902C802C8D8
:1010C00002C802C702C702C702C602C602C602C6DB
:1010D00002C502C502C502C402C402C402C302C3DF
:1010E00002C302C202C202C202C202C102C102C1E2
:1010F00002C002C002C002BF02BF02BF02BF02BEE6
:1011000002BE02BE02BD02BD02BD02BC02BC02BCE8
:1011100002BC02BB02BB02BB02BA02BA02BA02B9EB
:1011200002B902B902B902B802B802B802B702B7EE
:1011300002B702B602B602B602B602B502B502B5F1
:1011400002B402B402B402B302B302B302B302B2F5
:1011500002B202B202B102B102B102B002B002B0F8
:1011600002B002AF02AF02AF02AE02AE02AE02ADFB
:1011700002AD02AD02AD02AC02AC02AC02AB02ABFE
:1011800002AB02AA02AA02AA02AA02A902A902A901
:1011900002A802A802A802A702A702A702A702A605
:1011A00002A602A602A502A502A502A502A402A407
:1011B00002A402A302A302A302A202A202A202A20A
:1011C00002A102A102A102A002A002A0029F029F0E
:1011D000029F029F029E029E029E029D029D029D10
:1011E000029D029C029C029C029B029B029B029A13
:1011F000029A029A029A0299029902990298029816
:101200000298029702970297029702960296029618
:10121000029502950295029502940294029402931B
:10122000029302930292029202920292029102911E
:1012300002910290029002900290028F028F028F20
:10124000028E028E028E028D028D028D028D028C24
:10125000028C028C028B028B028B028B028A028A26
:10126000028A028902890289028802880288028829
:10127000028702870287028602860286028602852C
:10128000028502850284028402840283028302832F
:101290000283028202820282028102810281028131
:1012A000028002800280027F027F027F027E027E35
:1012B000027E027E027D027D027D027C027C027C37
:1012C000027C027B027B027B027A027A027A027A39
:1012D000027902790279027802780278027702773D
:1012E000027702770276027602760275027502753F
:1012F0000275027402740274027302730273027341
:101300000272027202720271027102710270027044
:1013100002700270026F026F026F026E026E026E46
:10132000026E026D026D026D026C026C026C026C48
:10133000026B026B026B026A026A026A026902694C
:10134000026902690268026802680267026702674E
:101350000267026602660266026502650265026550
:101360000264026402640263026302630262026254
:101370000262026202610261026102600260026056
:101380000260025F025F025F025E025E025E025E58
:10139000025D025D025D025C025C025C025B025B5C
:1013A000025B025B025A025A025A0259025902595E
:1013B0000259025802580258025702570257025760
:1013C0000256025602560255025502550255025463
:1013D0000254025402530253025302520252025266
:1013E0000252025102510251025002500250025068
:1013F000024F024F024F024E024E024E024E024D6B
:10140000024D024D024C024C024C024B024B024B6D
:10141000024B024A024A024A02490249024902496F
:101420000248024802480247024702470247024672
:101430000246024602450245024502450244024474
:101440000244024302430243024202420242024277
:101450000241024102410240024002400240023F7A
:10146000023F023F023E023E023E023E023D023D7C
:10147000023D023C023C023C023B023B023B023B7F
:10148000023A023A023A0239023902390239023882
:101490000238023802370237023702370236023684
:1014A0000236023502350235023402340234023487
:1014B000023302330233023202320232023202318A
:1014C000023102310230023002300230022F022F8C
:1014D000022F022E022E022E022D022D022D022D8F
:1014E000022C022C022C022B022B022B022B022A92
:1014F000022A022A02290229022902290228022894
:101500000228022702270227022602260226022696
:101510000225022502250224022402240224022399
:10152000022302230222022202220221022102219C
:101530000221022002200220021F021F021F021F9E
:10154000021E021E021E021D021D021D021C021CA2
:10155000021C021C021B021B021B021A021A021AA4
:10156000021A0219021902190218021802180217A7
:1015700002170217021702160216021602150215AA
:1015800002150215021402140214021302130213AC
:1015900002120212021202120211021102110210B0
:1015A000021002100210020F020F020F020E020EB2
:1015B000020E020D020D020D020D020C020C020CB5
:1015C000020B020B020B020B020A020A020A0209B8
:1015D00002090209020802080208020802070207BB
:1015E00002070206020602060205020502050205BE
:1015F00002040204020402030203020302030202C1
:1016000002020202020102010201020002000200C3
:10161000020002FF01FF01FF01FE01FE01FE01FDCC
:1016200001FD01FD01FD01FC01FC01FC01FB01FBD1
:1016300001FB01FA01FA01FA01FA01F901F901F9D4
:1016400001F801F801F801F701F701F701F701F6D8
:1016500001F601F601F501F501F501F401F401F4DB
:1016600001F401F301F301F301F201F201F201F2DD
:1016700001F101F101F101F001F001F001EF01EFE1
:1016800001EF01EE01EE01EE01EE01ED01ED01EDE4
:1016900001EC01EC01EC01EB01EB01EB01EB01EAE8
:1016A00001EA01EA01E901E901E901E801E801E8EB
:1016B00001E801E701E701E701E601E601E601E5EE
:1016C00001E501E501E501E401E401E401E301E3F1
:1016D00001E301E201E201E201E201E101E101E1F4
:1016E00001E001E001E001DF01DF01DF01DE01DEF9
:1016F00001DE01DE01DD01DD01DD01DC01DC01DCFB
:1017000001DB01DB01DB01DB01DA01DA01DA01D9FE
:1017100001D901D901D801D801D801D701D701D702
:1017200001D701D601D601D601D501D501D501D405
:1017300001D401D401D301D301D301D301D201D209
:1017400001D201D101D101D101D001D001D001CF0D
:1017500001CF01CF01CF01CE01CE01CE01CD01CD10
:1017600001CD01CC01CC01CC01CB01CB01CB01CB14
:1017700001CA01CA01CA01C901C901C901C801C818
:1017800001C801C701C701C701C601C601C601C61C
:1017900001C501C501C501C401C401C401C301C320
:1017A00001C301C201C201C201C201C101C101C123
:1017B00001C001C001C001BF01BF01BF01BE01BE28
:1017C00001BE01BD01BD01BD01BD01BC01BC01BC2B
:1017D00001BB01BB01BB01BA01BA01BA01B901B930
:1017E00001B901B801B801B801B701B701B701B734
:1017F00001B601B601B601B501B501B501B401B438
:1018000001B401B301B301B301B201B201B201B13C
:1018100001B101B101B101B001B001B001AF01AF3F
:1018200001AF01AE01AE01AE01AD01AD01AD01AC44
:1018300001AC01AC01AB01AB01AB01AA01AA01AA49
:1018400001A901A901A901A901A801A801A801A74D
:1018500001A701A701A601A601A601A501A501A551
:1018600001A401A401A401A301A301A301A201A257
:1018700001A201A101A101A101A001A001A0019F5C
:10188000019F019F019F019E019E019E019D019D5F
:10189000019D019C019C019C019B019B019B019A64
:1018A000019A019A01990199019901980198019869
:1018B000019701970197019601960196019501956F
:1018C0000195019401940194019301930193019274
:1018D0000192019201910191019101900190019079
:1018E000018F018F018F018E018E018E018D018D7F
:1018F000018D018C018C018C018B018B018B018A84
:10190000018A018A01890189018901880188018888
:10191000018701870187018601860186018501858E
:101920000185018401840184018301830183018293
:101930000182018201810181018101800180018098
:10194000017F017F017F017E017E017E017D017D9E
:10195000017D017C017C017C017B017B017B017AA3
:10196000017A017A017901790179017801780178A8
:1019700001770177017601760176017501750175B0
:1019800001740174017401730173017301720172B6
:101990000172017101710171017001700170016FBB
:1019A000016F016F016E016E016D016D016D016CC2
:1019B000016C016C016B016B016B016A016A016AC8
:1019C00001690169016901680168016801670167CE
:1019D00001660166016601650165016501640164D6
:1019E00001640163016301630162016201620161DB
:1019F0000161016001600160015F015F015F015EE3
:101A0000015E015E015D015D015D015C015C015BE8
:101A1000015B015B015A015A015A015901590159EF
:101A200001580158015801570157015601560156F6
:101A300001550155015501540154015401530153FD
:101A40000152015201520151015101510150015005
:101A50000150014F014F014E014E014E014D014D0C
:101A6000014D014C014C014B014B014B014A014A14
:101A7000014A01490149014901480148014701471B
:101A80000147014601460146014501450144014423
:101A9000014401430143014301420142014101412B
:101AA0000141014001400140013F013F013E013E33
:101AB000013E013D013D013C013C013C013B013B3C
:101AC000013B013A013A0139013901390138013844
:101AD000013801370137013601360136013501354C
:101AE0000134013401340133013301330132013255
:101AF00001310131013101300130012F012F012F5E
:101B0000012E012E012D012D012D012C012C012B67
:101B1000012B012B012A012A012A0129012901286F
:101B20000128012801270127012601260126012578
:101B30000125012401240124012301230122012282
:101B4000012201210121012001200120011F011F8B
:101B5000011E011E011E011D011D011C011C011C95
:101B6000011B011B011A011A0119011901190118A0
:101B700001180117011701170116011601150115AA
:101B800001150114011401130113011201120112B4
:101B900001110111011001100110010F010F010EBF
:101BA000010E010D010D010D010C010C010B010BCA
:101BB000010B010A010A01090109010801080108D4
:101BC00001070107010601060105010501050104E0
:101BD00001040103010301020102010201010101EB
:101BE0000100010001FF00FF00FF00FE00FE00FDFC
:101BF00000FD00FC00FC00FC00FB00FB00FA00FA0A
:101C000000F900F900F800F800F800F700F700F616
:101C100000F600F500F500F400F400F400F300F322
:101C200000F200F200F100F100F000F000F000EF2F
:101C300000EF00EE00EE00ED00ED00EC00EC00EB3C
:101C400000EB00EB00EA00EA00E900E900E800E848
:101C500000E700E700E600E600E600E500E500E456
:101C600000E400E300E300E200E200E100E100E064
:101C700000E000DF00DF00DF00DE00DE00DD00DD71
:101C800000DC00DC00DB00DB00DA00DA00D900D980
:101C900000D800D800D700D700D600D600D500D590
:101CA00000D500D400D400D300D300D200D200D19C
:101CB00000D100D000D000CF00CF00CE00CE00CDAC
:101CC00000CD00CC00CC00CB00CB00CA00CA00C9BC
:101CD00000C900C800C800C700C700C600C600C5CC
:101CE00000C500C400C400C300C300C200C200C1DC
:101CF00000C100C000C000BF00BF00BE00BE00BDEC
:101D000000BD00BC00BC00BB00BB00BA00BA00B9FB
:101D100000B800B800B700B700B600B600B500B50F
:101D200000B400B400B300B300B200B200B100B11F
:101D300000B000B000AF00AE00AE00AD00AD00AC32
:101D400000AC00AB00AB00AA00AA00A900A800A844
:101D500000A700A700A600A600A500A500A400A457
:101D600000A300A200A200A100A100A000A0009F6B
:101D7000009F009E009D009D009C009C009B009B7E
:101D8000009A009900990098009800970097009693
:101D900000950095009400940093009300920091A8
:101DA000009100900090008F008E008E008D008DBD
:101DB000008C008B008B008A008A008900880088D4
:101DC00000870087008600850085008400840083EA
:101DD00000820082008100810080007F007F007E01
:101DE000007D007D007C007C007B007A007A007919
:101DF0000078007800770077007600750075007431
:101E0000007300730072007100710070006F006F4A
:101E1000006E006E006D006C006C006B006A006A62
:101E2000006900680068006700660066006500647D
:101E3000006400630062006200610060005F005F98
:101E4000005E005D005D005C005B005B005A0059B5
:101E500000590058005700560056005500540054D1
:101E600000530052005100510050004F004F004EEF
:101E7000004D004C004C004B004A0049004900480E
:101E8000004700460046004500440043004300422E
:101E9000004100400040003F003E003D003C003C4F
:101EA000003B003A00390039003800370036003571
:101EB0000035003400330032003100310030002F93
:101EC000002E002D002D002C002B002A00290028B8
:101ED00000280027002600250024002300230022DC
:101EE00000210020001F001E001D001C001C001B04
:101EF000001A00190018001700160015001500142C
:101F00000013001200110010000F000E000D000C55
:101F1000000B000A000A000900080007000600057F
:101F20000004000300020001000000FFFFFEFFFDAF
:101F3000FFFCFFFBFFFAFFF9FFF8FFF7FFF6FFF5E5
:101F4000FFF4FFF3FFF2FFF1FFF0FFEFFFEEFFED15
:101F5000FFECFFEBFFEAFFE9FFE8FFE6FFE5FFE448
:101F6000FFE3FFE2FFE1FFE0FFDFFFDEFFDDFFDC7D
:101F7000FFDAFFD9FFD8FFD7FFD6FFD5FFD4FFD2B6
:101F8000FFD1FFD0FFCFFFCEFFCCFFCBFFCAFFC9F1
:101F9000FFC8FFC6FFC5FFC4FFC3FFC1FFC0FFBF2F
:101FA000FFBEFFBCFFBBFFBAFFB8FFB7FFB6FFB570
:101FB000FFB3FFB2FFB1FFAFFFAEFFACFFABFFAAB5
:101FC000FFA8FFA7FFA6FFA4FFA3FFA1FFA0FF9EFE
:101FD000FF9DFF9BFF9AFF98FF97FF95FF94FF924D
:101FE000FF91FF8FFF8EFF8CFF8BFF89FF87FF869E
:101FF000FF84FF82FF81FF7FFF7DFF7CFF7AFF78F8
:10200000FF77FF75FF73FF71FF70FF6EFF6CFF6A54
:10201000FF68FF66FF64FF63FF61FF5FFF5DFF5BBB
:10202000FF59FF57FF55FF53FF51FF4EFF4CFF4A2B
:10203000FF48FF46FF44FF41FF3FFF3DFF3BFF38A6
:10204000FF36FF34FF31FF2FFF2CFF2AFF27FF252C
:10205000FF22FF1FFF1DFF1AFF17FF14FF12FF0FC4
:10206000FF0CFF09FF06FF03FF00FFFDFEF9FEF670
:10207000FEF3FEF0FEECFEE9FEE5FEE2FEDEFEDA39
:10208000FED6FED2FECEFECAFEC6FEC2FEBDFEB922
:10209000FEB4FEB0FEABFEA6FEA1FE9BFE96FE9039
:1020A000FE8AFE84FE7EFE78FE71FE6AFE63FE5BA3
:1020B000FE53FE4BFE42FE39FE2FFE24FE19FE0D9E
:1020C000FEFFFDF1FDE1FDCFFDBBFDA3FD87FD633F
:1020D000FD33FDE5FC00000300060009000C0010C4
:1020E000001300160019001C001F00220025002804
:1020F000002B002F003200350038003B003E00412D
:1021000000440047004A004E005100540057005A56
:10211000005D0060006300660069006D0070007380
:1021200000760079007C007F008200850088008CAA
:10213000008F009200950098009B009E00A100A4D3
:1021400000A700AB00AE00B100B400B700BA00BDFC
:1021500000C000C300CA00CD00D000D300D600D913
:1021600000DC00DF00E200E500E900EC00EF00F237
:1021700000F500F800FB00FE000101040108010B5E
:10218000010E011101140117011A011D0120012383
:102190000127012A012D0130013301360139013CAB
:1021A000013F014201460149014C014F01520155D5
:1021B0000158015B015E016101650168016B016EFF
:1021C000017101740177017A017D01800184018729
:1021D000018A018D0190019301960199019C019F53
:1021E00001A301A601A901AC01AF01B201B501B87B
:1021F00001BB01BE01C201C501C801CB01CE01D1A5
:1022000001D401D701DA01DD01E101E401E701EACE
:1022100001ED01F001F301F601F901FC01000203F7
:1022200002060209020C020F021202150218021B1A
:10223000021F022202250228022B02310234023739
:10224000023A023E024102440247024A024D025053
:10225000025302560259025D02600263026602697D
:10226000026C026F027202750278027C027F0282A7
:1022700002850288028B028E029102940297029BD1
:10228000029E02A102A402A702AA02AD02B002B3FA
:1022900002B602BA02BD02C002C302C602C902CC23
:1022A00002CF02D202D502D902DC02DF02E202E54D
:1022B00002E802EB02EE02F102F402F802FB02FE77
:1022C000020103040307030A030D0310031303179A
:1022D000031A031D0320032303260329032C032FC2
:1022E000033203360339033C033F034203450348EB
:1022F000034B034E035103550358035B035E036115
:1023000003640367036A036D03740377037A037D31
:102310000380038303860389038C038F039303964F
:102320000399039C039F03A203A503A803AB03AE79
:1023300003B203B503B803BB03BE03C103C403C7A1
:1023400003CA03CD03D103D403D703DA03DD03E0CB
:1023500003E303E603E903EC03F003F303F603F9F5
:1023600003FC03FF030204050408040B040F04121A
:1023700004150418041B041E042104240427042A41
:10238000042E043104340437043A043D0440044369
:1023900004460449044D0450045304560459045C93
:1023A000045F046204650468046C046F04720475BD
:1023B0000478047B047E048104840487048B048EE7
:1023C000049104940497049D04A004A304A604AA01
:1023D00004AD04B004B304B604B904BC04BF04C221
:1023E00004C504C904CC04CF04D204D504D804DB4A
:1023F00004DE04E104E404E804EB04EE04F104F474
:1024000004F704FA04FD040005030507050A050D99
:102410000510051305160519051C051F05220526BF
:102420000529052C052F053205350538053B053EE8
:10243000054105450548054B054E05510554055711
:10244000055A055D056005640567056A056D05703B
:10245000057305760579057C057F05830586058965
:10246000058C058F059205950598059B059E05A28F
:1024700005A505A805AE05B105B405B705BA05BDA6
:1024800005C105C405C705CA05CD05D005D305D6C8
:1024900005D905DC05E005E305E605E905EC05EFF2
:1024A00005F205F505F805FB05FF0502060506081A
:1024B000060B060E061106140617061A061E06213E
:1024C00006240627062A062D063006330636063968
:1024D000063D0640064306460649064C064F065290
:1024E00006550658065C065F066206650668066BBA
:1024F000066E067106740677067B067E06810684E4
:102500000687068A068D069006930696069A069D0D
:1025100006A006A306A606AC06AF06B206B506B927
:1025200006BC06BF06C206C506C806CB06CE06D147
:1025300006D406D806DB06DE06E106E406E706EA70
:1025400006ED06F006F306F706FA06FD0600070399
:1025500007060709070C070F071207160719071CBC
:10256000071F072207250728072B072E07310735E6
:102570000738073B073E074107440747074A074D0F
:10258000075007540757075A075D07600763076638
:102590000769076C076F077307760779077C077F62
:1025A000078207850788078B078E0792079507988C
:1025B000079E07A107A407A707AA07AD07B107B49D
:1025C00007B707BA07BD07C007C307C607C907CCC7
:1025D00007D007D307D607D907DC07DF07E207E5EF
:1025E00007E807EB07EF07F207F507F807FB07FE19
:1025F000070108040807080A080E0811081408173C
:10260000081A081D0820082308260829082D083064
:10261000083308360839083C083F0842084508488E
:10262000084C084F085208550858085B085E0861B6
:1026300008640867086B086E087108740877087AE0
:10264000087D08830886088A088D089008930896F4
:102650000899089C089F08A208A508A908AC08AF1B
:1026600008B208B508B808BB08BE08C108C408C845
:1026700008CB08CE08D108D408D708DA08DD08E06E
:1026800008E308E708EA08ED08F008F308F608F997
:1026900008FC08FF080209060909090C090F0912BC
:1026A00009150918091B091E092109250928092BE3
:1026B000092E093109340937093A093D094009440D
:1026C0000947094A094D0950095309560959095F33
:1026D000096309660969096C096F09720975097846
:1026E000097B097E098209850988098B098E099170
:1026F00009940997099A099D09A109A409A709AA9A
:1027000009AD09B009B309B609B909BC09C009C3C3
:1027100009C609C909CC09CF09D209D509D809DBED
:1027200009DF09E209E509E809EB09EE09F109F415
:1027300009F709FA09FE09010A040A070A0A0A0D3B
:102740000A100A130A160A190A1D0A200A230A2661
:102750000A290A2F0A320A350A380A3C0A3F0A4275
:102760000A450A480A4B0A4E0A510A540A570A5B9C
:102770000A5E0A610A640A670A6A0A6D0A700A73C5
:102780000A760A7A0A7D0A800A830A860A890A8CEE
:102790000A8F0A920A950A990A9C0A9F0AA20AA518
:1027A0000AA80AAB0AAE0AB10AB40AB80ABB0ABE42
:1027B0000AC10AC40AC70ACA0ACD0AD00AD30AD76C
:1027C0000ADA0ADD0AE00AE30AE60AE90AEC0AEF95
:1027D0000AF20AF90AFC0AFF0A020B050B080B0BA6
:1027E0000B0E0B110B150B180B1B0B1E0B210B24C7
:1027F0000B270B2A0B2D0B300B340B370B3A0B3DF1
:102800000B400B430B460B490B4C0B4F0B530B561A
:102810000B590B5C0B5F0B620B650B680B6B0B6E44
:102820000B720B750B780B7B0B7E0B810B840B876C
:102830000B8A0B8D0B910B940B970B9A0B9D0BA096
:102840000BA30BA60BA90BAC0BB00BB30BB90BBCBA
:102850000BBF0BC20BC50BC80BCB0BCF0BD20BD5D1
:102860000BD80BDB0BDE0BE10BE40BE70BEA0BEEFB
:102870000BF10BF40BF70BFA0BFD0B000C030C0622
:102880000C090C0D0C100C130C160C190C1C0C1F45
:102890000C220C250C280C2C0C2F0C320C350C386F
:1028A0000C3B0C3E0C410C440C470C4B0C4E0C5199
:1028B0000C540C570C5A0C5D0C600C630C660C6AC3
:1028C0000C6D0C700C760C790C7C0C7F0C820C85DA
:1028D0000C890C8C0C8F0C920C950C980C9B0C9EFC
:1028E0000CA10CA40CA80CAB0CAE0CB10CB40CB726
:1028F0000CBA0CBD0CC00CC30CC70CCA0CCD0CD050
:102900000CD30CD60CD90CDC0CDF0CE20CE60CE979
:102910000CEC0CEF0CF20CF50CF80CFB0CFE0C01A3
:102920000D050D080D0B0D0E0D110D140D170D1AC3
:102930000D1D0D200D240D2A0D2D0D300D330D36DE
:102940000D390D3C0D3F0D430D460D490D4C0D4FFE
:102950000D520D550D580D5B0D5E0D620D650D6828
:102960000D6B0D6E0D710D740D770D7A0D7D0D8152
:102970000D840D870D8A0D8D0D900D930D960D997B
:102980000D9C0DA00DA30DA60DA90DAC0DAF0DB2A4
:102990000DB50DB80DBB0DBF0DC20DC50DC80DCBCE
:1029A0000DCE0DD10DD40DDA0DDE0DE10DE40DE7E8
:1029B0000DEA0DED0DF00DF30DF60DF90DFD0D0009
:1029C0000E030E060E090E0C0E0F0E120E150E182B
:1029D0000E1C0E1F0E220E250E280E2B0E2E0E3153
:1029E0000E340E370E3B0E3E0E410E440E470E4A7D
:1029F0000E4D0E500E530E560E5A0E5D0E600E63A7
:102A00000E660E690E6C0E6F0E720E750E790E7CD0
:102A10000E7F0E850E880E8B0E8E0E910E940E98E4
:102A20000E9B0E9E0EA10EA40EA70EAA0EAD0EB00A
:102A30000EB30EB70EBA0EBD0EC00EC30EC60EC933
:102A40000ECC0ECF0ED20ED60ED90EDC0EDF0EE25D
:102A50000EE50EE80EEB0EEE0EF10EF50EF80EFB87
:102A60000EFE0E010F040F070F0A0F0D0F100F14AB
:102A70000F170F1A0F1D0F200F230F260F2C0F2FCC
:102A80000F330F360F390F3C0F3F0F420F450F48E2
:102A90000F4B0F4E0F520F550F580F5B0F5E0F610C
:102AA0000F640F670F6A0F6D0F710F740F770F7A36
:102AB0000F7D0F800F830F860F890F8C0F900F9360
:102AC0000F960F990F9C0F9F0FA20FA50FA80FAB8A
:102AD0000FAF0FB20FB50FB80FBB0FBE0FC10FC4B2
:102AE0000FC70FCE0FD10FD40FD70FDA0FDD0FE0C6
:102AF0000FE30FE60FE90FED0FF00FF30FF60FF9ED
:102B00000FFC0FFF0F0210051008100C100F101211
:102B100010151018101B101E102110241027102B38
:102B2000102E103110341037103A103D1040104361
:102B30001046104A104D1050105310561059105C8A
:102B4000105F10621065106C106F107210751078A5
:102B5000107B107E108110841088108B108E1091C5
:102B600010941097109A109D10A010A310A710AAEF
:102B700010AD10B010B310B610B910BC10BF10C219
:102B800010C610C910CC10CF10D210D510D810DB41
:102B900010DE10E110E510E810EB10EE10F110F46B
:102BA00010F710FA10FD10001107110A110D111085
:102BB000111311161119111C111F1123112611299E
:102BC000112C112F113211351138113B113E1142C8
:102BD00011451148114B114E115111541157115AF1
:102BE000115D116111641167116A116D117011731A
:102BF00011761179117C1180118311861189118C44
:102C0000118F119211951198119F11A211A511A860
:102C100011AB11AE11B111B411B711BA11BE11C17E
:102C200011C411C711CA11CD11D011D311D611D9A8
:102C300011DD11E011E311E611E911EC11EF11F2D0
:102C400011F511F811FC11FF110212051208120BF7
:102C5000120E121112141217121B121E122112241C
:102C60001227122A122D12331236123A123D124036
:102C7000124312461249124C124F12521255125957
:102C8000125C125F126212651268126B126E127180
:102C900012741278127B127E128112841287128AA9
:102CA000128D129012931297129A129D12A012A3D3
:102CB00012A612A912AC12AF12B212B612B912BCFD
:102CC00012BF12C512C812CB12CE12D112D512D811
:102CD00012DB12DE12E112E412E712EA12ED12F038
:102CE00012F412F712FA12FD12001303130613095D
:102CF000130C130F131313161319131C131F132282
:102D000013251328132B132E133213351338133BAB
:102D1000133E134113441347134A134D13541357CF
:102D2000135A135D1360136313661369136C1370E6
:102D3000137313761379137C137F1382138513880F
:102D4000138B138F139213951398139B139E13A138
:102D500013A413A713AA13AE13B113B413B713BA62
:102D600013BD13C013C313C613C913CD13D013D38C
:102D700013D613D913DF13E213E513E813EC13EFA3
:102D800013F213F513F813FB13FE130114041407C5
:102D9000140B140E141114141417141A141D1420E7
:102DA00014231426142A142D143014331436143911
:102DB000143C143F144214451449144C144F14523B
:102DC00014551458145B145E14611468146B146E5B
:102DD000147114741477147A147D14801483148776
:102DE000148A148D1490149314961499149C149F9F
:102DF00014A214A614A914AC14AF14B214B514B8C8
:102E000014BB14BE14C114C514C814CB14CE14D1F1
:102E100014D414D714DA14DD14E014E414E714EA1B
:102E200014F014F314F614F914FC14FF140315062B
:102E30001509150C150F151215151518151B151E4E
:102E4000152215251528152B152E15311534153776
:102E5000153A153D154115441547154A154D1550A0
:102E6000155315561559155C1560156315661569CA
:102E7000156C157215751578157B157F15821585DE
:102E80001588158B158E159115941597159A159E05
:102E900015A115A415A715AA15AD15B015B315B62E
:102EA00015B915BD15C015C315C615C915CC15CF57
:102EB00015D215D515D815DC15DF15E215E515E881
:102EC00015EB15EE15F415F715FB15FE1501160497
:102ED0001607160A160D161016131616161A161DB4
:102EE0001620162316261629162C162F16321635DE
:102EF0001639163C163F164216451648164B164E06
:102F0000165116541658165B165E1661166416672F
:102F1000166A166D16701677167A167D1680168349
:102F200016861689168C168F169216961699169C6A
:102F3000169F16A216A516A816AB16AE16B116B594
:102F400016B816BB16BE16C116C416C716CA16CDBD
:102F500016D016D416D716DA16DD16E016E316E6E6
:102F600016E916EC16EF16F616F916FC16FF160201
:102F700017051708170B170E171217151718171B19
:102F8000171E172117241727172A172D1731173443
:102F90001737173A173D1740174317461749174C6D
:102FA0001750175317561759175C175F1762176595
:102FB0001768176B177217751778177B177E1781AD
:102FC00017841787178A178E179117941797179AD0
:102FD000179D17A017A317A617A917AD17B017B3FA
:102FE00017B617B917BC17BF17C217C517C817CC24
:102FF00017CF17D217D517D817DB17DE17E117E44D
:1030000017EB17EE17F117F417F717FA17FD17005C
:1030100018031806180A180D18101813181618197E
:10302000181C181F182218251829182C182F1832A8
:1030300018351838183B183E184118441848184BD2
:10304000184E185118541857185A185D18631867F5
:10305000186A186D1870187318761879187C187F0C
:10306000188218861889188C188F18921895189835
:10307000189B189E18A118A518A818AB18AE18B15F
:1030800018B418B718BA18BD18C018C418C718CA89
:1030900018CD18D018D318D618DC18DF18E318E6A6
:1030A00018E918EC18EF18F218F518F818FB18FEC4
:1030B000180219051908190B190E191119141917E5
:1030C000191A191D192119241927192A192D19300E
:1030D000193319361939193C194019431946194938
:1030E000194C195219551958195B195F196219654C
:1030F0001968196B196E197119741977197A197E73
:10310000198119841987198A198D1990199319969B
:103110001999199D19A019A319A619A919AC19AFC4
:1031200019B219B519B819BC19BF19C519C819CBE5
:1031300019CE19D119D419D719DB19DE19E119E4FF
:1031400019E719EA19ED19F019F319F619FA19FD29
:1031500019001A031A061A091A0C1A0F1A121A154C
:103160001A191A1C1A1F1A221A251A281A2B1A2E73
:103170001A311A381A3B1A3E1A411A441A471A4A87
:103180001A4D1A501A531A571A5A1A5D1A601A63AE
:103190001A661A691A6C1A6F1A721A761A791A7CD8
:1031A0001A7F1A821A851A881A8B1A8E1A911A9502
:1031B0001A981A9B1A9E1AA11AA41AAA1AAD1AB022
:1031C0001AB41AB71ABA1ABD1AC01AC31AC61AC93B
:1031D0001ACC1ACF1AD31AD61AD91ADC1ADF1AE265
:1031E0001AE51AE81AEB1AEE1AF21AF51AF81AFB8F
:1031F0001AFE1A011B041B071B0A1B0D1B111B14B3
:103200001B1A1B1D1B201B231B261B291B2C1B30C1
:103210001B331B361B391B3C1B3F1B421B451B48EA
:103220001B4B1B4F1B521B551B581B5B1B5E1B6113
:103230001B641B671B6A1B6E1B711B741B771B7A3D
:103240001B7D1B801B831B891B8D1B901B931B9657
:103250001B991B9C1B9F1BA21BA51BA81BAC1BAF78
:103260001BB21BB51BB81BBB1BBE1BC11BC41BC7A2
:103270001BCB1BCE1BD11BD41BD71BDA1BDD1BE0CA
:103280001BE31BE61BEA1BED1BF01BF61BF91BFCEB
:103290001BFF1B021C051C091C0C1C0F1C121C15FF
:1032A0001C181C1B1C1E1C211C241C281C2B1C2E27
:1032B0001C311C341C371C3A1C3D1C401C431C4751
:1032C0001C4A1C4D1C501C531C561C591C5C1C6277
:1032D0001C661C691C6C1C6F1C721C751C781C7B8A
:1032E0001C7E1C811C851C881C8B1C8E1C911C94B4
:1032F0001C971C9A1C9D1CA01CA41CA71CAA1CADDE
:103300001CB01CB31CB61CB91CBC1CBF1CC31CC607
:103310001CC91CCF1CD21CD51CD81CDB1CDE1CE21B
:103320001CE51CE81CEB1CEE1CF11CF41CF71CFA41
:103330001CFD1C011D041D071D0A1D0D1D101D1364
:103340001D161D191D1C1D201D231D261D291D2C8C
:103350001D2F1D321D381D3B1D3F1D421D451D48A3
:103360001D4B1D4E1D511D541D571D5A1D5E1D61C7
:103370001D641D671D6A1D6D1D701D731D761D79F1
:103380001D7D1D801D831D861D891D8C1D8F1D9219
:103390001D951D981D9C1DA21DA51DA81DAB1DAE34
:1033A0001DB11DB41DB71DBB1DBE1DC11DC41DC754
:1033B0001DCA1DCD1DD01DD31DD61DDA1DDD1DE07E
:1033C0001DE31DE61DE91DEC1DEF1DF21DF51DF9A8
:1033D0001DFC1DFF1D021E081E0B1E0E1E111E14BD
:1033E0001E181E1B1E1E1E211E241E271E2A1E2DD9
:1033F0001E301E331E371E3A1E3D1E401E431E4603
:103400001E491E4C1E4F1E521E561E591E5C1E5F2C
:103410001E621E651E681E6E1E711E751E781E7B46
:103420001E7E1E811E841E871E8A1E8D1E901E9467
:103430001E971E9A1E9D1EA01EA31EA61EA91EAC90
:103440001EAF1EB31EB61EB91EBC1EBF1EC21EC5B9
:103450001EC81ECB1ECE1ED51ED81EDB1EDE1EE1D4
:103460001EE41EE71EEA1EED1EF11EF41EF71EFAF4
:103470001EFD1E001F031F061F091F0C1F101F1318
:103480001F161F191F1C1F1F1F221F251F281F2B40
:103490001F2F1F321F351F3B1F3E1F411F441F4759
:1034A0001F4A1F4E1F511F541F571F5A1F5D1F6079
:1034B0001F631F661F691F6D1F701F731F761F79A3
:1034C0001F7C1F7F1F821F851F881F8C1F8F1F92CD
:1034D0001F951F981F9E1FA11FA41FA71FAB1FAEE4
:1034E0001FB11FB41FB71FBA1FBD1FC01FC31FC608
:1034F0001FCA1FCD1FD01FD31FD61FD91FDC1FDF30
:103500001FE21FE51FE91FEC1FEF1FF21FF51FF859
:103510001FFB1F0120042008200B200E2011201467
:103520002017201A201D202020232027202A202D8C
:103530002030203320362039203C203F20422046B6
:103540002049204C204F205220552058205B2061DC
:1035500020652068206B206E207120742077207AEF
:10356000207D208020842087208A208D2090209319
:1035700020962099209C209F20A320A620A920AC43
:1035800020AF20B220B520B820BB20BE20C520C867
:1035900020CB20CE20D120D420D720DA20DD20E17E
:1035A00020E420E720EA20ED20F020F320F620F9A7
:1035B00020FC2000210321062109210C210F2112CA
:1035C00021152118211B211F21252128212B212EE6
:1035D000213121342137213A213E21412144214703
:1035E000214A214D2150215321562159215D21602D
:1035F000216321662169216C216F21722175217857
:10360000217C218221852188218B218E2191219469
:103610002197219B219E21A121A421A721AA21AD8F
:1036200021B021B321B621BA21BD21C021C321C6B9
:1036300021C921CC21CF21D221D521D921DC21E2E0
:1036400021E521E821EB21EE21F121F421F821FBF4
:1036500021FE210122042207220A220D2210221318
:103660002217221A221D2220222322262229222C3E
:10367000222F223222362239223F2242224522485C
:10368000224B224E225122552258225B225E226179
:1036900022642267226A226D227022742277227AA3
:1036A000227D2280228322862289228C228F2293CD
:1036B0002296229C229F22A222A522A822AB22AEE1
:1036C00022B222B522B822BB22BE22C122C422C706
:1036D00022CA22CD22D122D422D722DA22DD22E030
:1036E00022E322E622E922EC22F022F322F922FC54
:1036F00022FF220223052308230B230F2312231565
:103700002318231B231E232123242327232A232E8C
:10371000233123342337233A233D234023432346B5
:103720002349234D235323562359235C235F2362CC
:1037300023652368236C236F237223752378237BEF
:10374000237E238123842387238B238E2391239419
:103750002397239A239D23A023A323A623AA23B040
:1037600023B323B623B923BC23BF23C223C523C954
:1037700023CC23CF23D223D523D823DB23DE23E17D
:1037800023E423E823EB23EE23F123F423F723FAA6
:1037900023FD23002403240A240D241024132416BB
:1037A0002419241C241F242224262429242C242FD9
:1037B000243224352438243B243E24412445244803
:1037C000244B244E245124542457245A245D246429
:1037D0002467246A246D2470247324762479247C3D
:1037E000247F248324862489248C248F2492249566
:1037F0002498249B249E24A224A524A824AB24AE90
:1038000024B124B424BA24BD24C124C424C724CAA6
:1038100024CD24D024D324D624D924DC24E024E3CA
:1038200024E624E924EC24EF24F224F524F824FBF4
:1038300024FF240225052508250B250E2514251710
:10384000251A251E252125242527252A252D253025
:10385000253325362539253D25402543254625494F
:10386000254C254F255225552558255C255F256279
:103870002565256B256E257125742577257B257E8D
:10388000258125842587258A258D259025932596B4
:10389000259A259D25A025A325A625A925AC25AFDC
:1038A00025B225B525B925BC25C225C525C825CBFA
:1038B00025CE25D125D425D825DB25DE25E125E417
:1038C00025E725EA25ED25F025F325F725FA25FD41
:1038D0002500260326062609260C260F2612261961
:1038E000261C261F262226252628262B262E263174
:1038F00026352638263B263E264126442647264A9C
:10390000264D265026542657265A265D26602663C5
:103910002666266C266F267326762679267C267FD9
:10392000268226852688268B268E26922695269800
:10393000269B269E26A126A426A726AA26AD26B12A
:1039400026B426B726BA26BD26C326C626C926CC47
:1039500026D026D326D626D926DC26DF26E226E563
:1039600026E826EB26EF26F226F526F826FB26FE8D
:10397000260127042707270A270E27112717271AAA
:10398000271D2720272327262729272D27302733C0
:1039900027362739273C273F274227452748274CEA
:1039A000274F275227552758275B275E2761276413
:1039B000276B276E277127742777277A277D278023
:1039C00027832786278A278D27902793279627994D
:1039D000279C279F27A227A527A927AC27AF27B277
:1039E00027B527B827BE27C127C427C827CB27CE8E
:1039F00027D127D427D727DA27DD27E027E327E7B2
:103A000027EA27ED27F027F327F627F927FC27FFDA
:103A1000270228062809280C281228152818281BF0
:103A2000281E282128252828282B282E283128340C
:103A30002837283A283D284028442847284A284D36
:103A40002850285328562859285C28632866286956
:103A5000286C286F287228752878287B287E288271
:103A600028852888288B288E289128942897289A9A
:103A7000289D28A128A428A728AA28AD28B028B6C0
:103A800028B928BC28C028C328C628C928CC28CFD4
:103A900028D228D528D828DB28DF28E228E528E8FE
:103AA00028EB28EE28F128F428F728FA28FE280128
:103AB0002907290A290D2910291329162919291D31
:103AC0002920292329262929292C292F293229355A
:103AD0002938293C293F294229452948294B294E83
:103AE00029512957295B295E296129642967296A97
:103AF000296D297029732976297A297D29802983BE
:103B000029862989298C298F299229952999299CE7
:103B1000299F29A229A829AB29AE29B129B429B8FE
:103B200029BB29BE29C129C429C729CA29CD29D021
:103B300029D329D729DA29DD29E029E329E629E94A
:103B400029EC29EF29F629F929FC29FF29022A0560
:103B50002A082A0B2A0E2A112A152A182A1B2A1E7D
:103B60002A212A242A272A2A2A2D2A302A342A37A7
:103B70002A3A2A3D2A402A462A492A4C2A4F2A53C1
:103B80002A562A592A5C2A5F2A622A652A682A6BE1
:103B90002A6E2A722A752A782A7B2A7E2A812A840A
:103BA0002A872A8A2A8D2A942A972A9A2A9D2AA025
:103BB0002AA32AA62AA92AAC2AB02AB32AB62AB945
:103BC0002ABC2ABF2AC22AC52AC82ACB2ACF2AD26F
:103BD0002AD52AD82ADB2ADE2AE42AE72AEA2AEE8C
:103BE0002AF12AF42AF72AFA2AFD2A002B032B06A7
:103BF0002B092B0D2B102B132B162B192B1C2B1FCA
:103C00002B222B252B282B2C2B322B352B382B3BE7
:103C10002B3E2B412B442B472B4B2B4E2B512B5404
:103C20002B572B5A2B5D2B602B632B662B6A2B6D2E
:103C30002B702B732B762B792B7F2B822B852B894B
:103C40002B8C2B8F2B922B952B982B9B2B9E2BA168
:103C50002BA42BA82BAB2BAE2BB12BB42BB72BBA91
:103C60002BBD2BC02BC32BC72BCD2BD02BD32BD6AF
:103C70002BD92BDC2BDF2BE22BE62BE92BEC2BEFCC
:103C80002BF22BF52BF82BFB2BFE2B012C052C08F4
:103C90002C0B2C0E2C112C172C1A2C1D2C202C2408
:103CA0002C272C2A2C2D2C302C332C362C392C3C28
:103CB0002C3F2C432C462C492C4C2C4F2C522C5551
:103CC0002C582C5B2C5E2C652C682C6B2C6E2C716C
:103CD0002C742C772C7A2C7D2C812C842C872C8A8C
:103CE0002C8D2C902C932C962C992C9C2CA02CA3B6
:103CF0002CA62CA92CAF2CB22CB52CB82CBB2CBFCD
:103D00002CC22CC52CC82CCB2CCE2CD12CD42CD7EF
:103D10002CDA2CDE2CE12CE42CE72CEA2CED2CF018
:103D20002CF32CF62CFD2C002D032D062D092D0C2B
:103D30002D0F2D122D152D182D1C2D1F2D222D254B
:103D40002D282D2B2D2E2D312D342D372D3B2D3E75
:103D50002D412D472D4A2D4D2D502D532D562D5A89
:103D60002D5D2D602D632D662D692D6C2D6F2D72AF
:103D70002D752D792D7C2D7F2D822D852D882D8BD8
:103D80002D912D942D982D9B2D9E2DA12DA42DA7E9
:103D90002DAA2DAD2DB02DB32DB72DBA2DBD2DC013
:103DA0002DC32DC62DC92DCC2DCF2DD22DD62DDC3A
:103DB0002DDF2DE22DE52DE82DEB2DEE2DF12DF54E
:103DC0002DF82DFB2DFE2D012E042E072E0A2E0D73
:103DD0002E102E142E172E1A2E1D2E202E262E2992
:103DE0002E2C2E2F2E332E362E392E3C2E3F2E42A9
:103DF0002E452E482E4B2E4E2E522E552E582E5BD3
:103E00002E5E2E612E642E672E6D2E712E742E77EF
:103E10002E7A2E7D2E802E832E862E892E8C2E900D
:103E20002E932E962E992E9C2E9F2EA22EA52EA836
:103E30002EAB2EAF2EB22EB82EBB2EBE2EC12EC450
:103E40002EC72ECA2ECE2ED12ED42ED72EDA2EDD70
:103E50002EE02EE32EE62EE92EED2EF02EF32EF69A
:103E60002EF92EFF2E022F052F082F0C2F0F2F12A9
:103E70002F152F182F1B2F1E2F212F242F272F2BCD
:103E80002F2E2F312F342F372F3A2F3D2F402F43F6
:103E90002F4A2F4D2F502F532F562F592F5C2F5F06
:103EA0002F622F652F692F6C2F6F2F722F752F7830
:103EB0002F7B2F7E2F812F842F882F8B2F912F9454
:103EC0002F972F9A2F9D2FA02FA32FA72FAA2FAD6B
:103ED0002FB02FB32FB62FB92FBC2FBF2FC22FC695
:103EE0002FC92FCC2FCF2FD22FD82FDB2FDE2FE1B2
:103EF0002FE52FE82FEB2FEE2FF12FF42FF72FFACE
:103F00002FFD2F0030043007300A300D30103013F1
:103F100030163019301F302330263029302C302F06
:103F2000303230353038303B303E3042304530482A
:103F3000304B304E305130543057305A305D306154
:103F40003067306A306D3070307330763079307C65
:103F50003080308330863089308C308F309230958D
:103F60003098309B309F30A230A530A830AE30B1B1
:103F700030B430B730BA30BE30C130C430C730CAC8
:103F800030CD30D030D330D630D930DD30E030E3F2
:103F900030E630E930EC30F230F530F830FC30FF0C
:103FA000300231053108310B310E31113114311726
:103FB000311B311E312131243127312A312D31304D
:103FC0003133313A313D3140314331463149314C61
:103FD000314F315231553159315C315F3162316588
:103FE0003168316B316E317131743178317E3181AC
:103FF00031843187318A318D319031933196319AC4
:10400000319D31A031A331A631A931AC31AF31B2EC
:1040100031B531B931BC31BF31C531C831CB31CE09
:1040200031D131D431D831DB31DE31E131E431E726
:1040300031EA31ED31F031F331F731FA31FD310050
:1040400032033209320C320F321232163219321C5C
:10405000321F322232253228322B322E3231323583
:104060003238323B323E324132443247324D3250A6
:1040700032543257325A325D3260326332663269BC
:10408000326C326F327332763279327C327F3282E6
:1040900032853288328B329232953298329B329E00
:1040A00032A132A432A732AA32AD32B132B432B721
:1040B00032BA32BD32C032C332C632C932CC32D04B
:1040C00032D632D932DC32DF32E232E532E832EB5C
:1040D00032EF32F232F532F832FB32FE3201330483
:1040E0003307330A330E33113314331A331D33209D
:1040F000332333263329332D3330333333363339B7
:10410000333C333F334233453348334C334F3352E0
:1041100033553358335E336133643367336B336EF7
:10412000337133743377337A337D3380338333861B
:10413000338A338D3390339333963399339F33A23D
:1041400033A533A933AC33AF33B233B533B833BB54
:1041500033BE33C133C433C833CB33CE33D133D47E
:1041600033D733DA33DD33E333E733EA33ED33F098
:1041700033F333F633F933FC33FF330234063409B7
:10418000340C340F341234153418341B341E3425D7
:104190003428342B342E343134343437343A343DEB
:1041A000344034443447344A344D34503453345614
:1041B0003459345C345F34633469346C346F347232
:1041C00034753478347B347E348234853488348B4F
:1041D000348E349134943497349A349D34A134A479
:1041E00034AA34AD34B034B334B634B934BC34C08A
:1041F00034C334C634C934CC34CF34D234D534D8B3
:1042000034DB34DF34E234E534EB34EE34F134F4CF
:1042100034F734FA34FE340135043507350A350DE8
:104220003510351335163519351D3520352335260E
:10423000352C352F353235353538353C353F35421F
:1042400035453548354B354E355135543557355B49
:10425000355E356135643567356A35703573357669
:10426000357A357D3580358335863589358C358F82
:10427000359235953599359C359F35A235A535A8AC
:1042800035AB35B135B435B835BB35BE35C135C4C0
:1042900035C735CA35CD35D035D335D735DA35DDE7
:1042A00035E035E335E635E935EF35F235F635F904
:1042B00035FC35FF350236053608360B360E36111D
:1042C00036153618361B361E362136243627362A42
:1042D000363036343637363A363D36403643364653
:1042E0003649364C364F365336563659365C365F7D
:1042F000366236653668366B367236753678367B9A
:10430000367E368136843687368A368D36913694B7
:104310003697369A369D36A036A336A636A936ACE1
:1043200036B336B636B936BC36BF36C236C536C8F1
:1043300036CB36CF36D236D536D836DB36DE36E11A
:1043400036E436E736EA36F136F436F736FA36FD35
:104350003600370337063709370D3710371337164E
:104360003719371C371F372237253728372C373274
:1043700037353738373B373E374137443747374B88
:10438000374E375137543757375A375D37603763B1
:104390003766376A3770377337763779377C377FC8
:1043A000378237853789378C378F379237953798EB
:1043B000379B379E37A137A437A837AE37B137B40C
:1043C00037B737BA37BD37C037C337C737CA37CD26
:1043D00037D037D337D637D937DC37DF37E237E650
:1043E00037E937EF37F237F537F837FB37FE370164
:1043F00038053808380B380E381138143817381A81
:10440000381D382038243827382D3830383338369E
:104410003839383C383F384338463849384C384FBB
:10442000385238553858385B385E38623865386BE2
:10443000386E387138743877387A387D38813884F6
:104440003887388A388D3890389338963899389C20
:1044500038A038A338A938AC38AF38B238B538B836
:1044600038BB38BF38C238C538C838CB38CE38D159
:1044700038D438D738DA38DE38E138E738EA38ED7A
:1044800038F038F338F638F938FD38003903390692
:104490003909390C390F391239153918391C391FB6
:1044A00039253928392B392E393139343937393BC7
:1044B000393E394139443947394A394D39503953F0
:1044C0003956395A395D396339663969396C396F0A
:1044D000397239753979397C397F3982398539882A
:1044E000398B398E399139943998399E39A139A44B
:1044F00039A739AA39AD39B039B339B739BA39BD65
:1045000039C039C339C639C939CC39CF39D239D68E
:1045100039DC39DF39E239E539E839EB39EE39F19F
:1045200039F539F839FB39FE39013A043A073A0AC4
:104530003A0D3A103A143A1A3A1D3A203A233A26DA
:104540003A293A2C3A2F3A333A363A393A3C3A3FFA
:104550003A423A453A483A4B3A4E3A553A583A5B1B
:104560003A5E3A613A643A673A6A3A6D3A713A7435
:104570003A773A7A3A7D3A803A833A863A893A8C5F
:104580003A933A963A993A9C3A9F3AA23AA53AA86F
:104590003AAB3AAF3AB23AB53AB83ABB3ABE3AC198
:1045A0003AC43AC73ACE3AD13AD43AD73ADA3ADDAF
:1045B0003AE03AE33AE63AE93AED3AF03AF33AF6D3
:1045C0003AF93AFC3AFF3A023B083B0C3B0F3B12EC
:1045D0003B153B183B1B3B1E3B213B243B273B2B06
:1045E0003B2E3B313B343B373B3A3B3D3B403B462C
:1045F0003B4A3B4D3B503B533B563B593B5C3B5F3F
:104600003B623B653B693B6C3B6F3B723B753B7868
:104610003B7B3B813B843B883B8B3B8E3B913B947C
:104620003B973B9A3B9D3BA03BA33BA73BAA3BADA3
:104630003BB03BB33BB63BBC3BBF3BC23BC63BC9BD
:104640003BCC3BCF3BD23BD53BD83BDB3BDE3BE1DE
:104650003BE53BE83BEB3BEE3BF13BF73BFA3BFDFD
:104660003B003C043C073C0A3C0D3C103C133C1610
:104670003C193C1C3C1F3C233C263C293C2C3C3236
:104680003C353C383C3B3C3E3C423C453C483C4B4A
:104690003C4E3C513C543C573C5A3C5D3C613C6474
:1046A0003C673C6D3C703C733C763C793C7C3C8088
:1046B0003C833C863C893C8C3C8F3C923C953C98AE
:1046C0003C9B3C9F3CA23CA83CAB3CAE3CB13CB4C8
:1046D0003CB73CBA3CBE3CC13CC43CC73CCA3CCDE8
:1046E0003CD03CD33CD63CD93CDD3CE33CE63CE909
:1046F0003CEC3CEF3CF23CF53CF83CFC3CFF3C0223
:104700003D053D083D0B3D0E3D113D143D1B3D1E3D
:104710003D213D243D273D2A3D2D3D303D333D3655
:104720003D3A3D3D3D403D433D463D493D4C3D4F7D
:104730003D553D593D5C3D5F3D623D653D683D6B8E
:104740003D6E3D713D743D783D7B3D7E3D813D84B8
:104750003D873D8A3D903D933D973D9A3D9D3DA0CF
:104760003DA33DA63DA93DAC3DAF3DB23DB63DB9F3
:104770003DBC3DBF3DC23DC83DCB3DCE3DD13DD50D
:104780003DD83DDB3DDE3DE13DE43DE73DEA3DED2D
:104790003DF03DF43DF73DFA3DFD3D033E063E094B
:1047A0003E0C3E0F3E133E163E193E1C3E1F3E225F
:1047B0003E253E283E2B3E2E3E323E353E3B3E3E83
:1047C0003E413E443E473E4A3E4D3E513E543E579A
:1047D0003E5A3E5D3E603E633E663E693E6C3E70C4
:1047E0003E763E793E7C3E7F3E823E853E883E8BD5
:1047F0003E8F3E923E953E983E9B3E9E3EA13EA4FD
:104800003EA73EAE3EB13EB43EB73EBA3EBD3EC010
:104810003EC33EC63EC93ECD3ED03ED33ED63ED937
:104820003EDC3EDF3EE23EE83EEC3EEF3EF23EF551
:104830003EF83EFB3EFE3E013F043F073F0B3F0E6E
:104840003F113F143F173F1A3F203F233F263F2A87
:104850003F2D3F303F333F363F393F3C3F3F3F42A4
:104860003F453F493F4C3F4F3F523F583F5B3F5EC4
:104870003F613F643F683F6B3F6E3F713F743F77DE
:104880003F7A3F7D3F803F833F873F8A3F903F9302
:104890003F963F993F9C3F9F3FA23FA63FA93FAC19
:1048A0003FAF3FB23FB53FB83FBB3FBE3FC13FC840
:1048B0003FCB3FCE3FD13FD43FD73FDA3FDD3FE054
:1048C0003FE43FE73FEA3FED3FF03FF33FF63FF97C
:1048D0003FFF3F0340064009400C400F4012401587
:1048E0004018401B401E402240254028402B402EAF
:1048F00040314037403A403D404140444047404AC3
:10490000404D4050405340564059405C40604063E9
:1049100040664069406F407240754078407B407F00
:10492000408240854088408B408E40914094409723
:10493000409A409E40A140A740AA40AD40B040B33D
:1049400040B640B940BD40C040C340C640C940CC5D
:1049500040CF40D240D540D840DF40E240E540E87B
:1049600040EB40EE40F140F440F740FB40FE400198
:1049700041044107410A410D41104116411A411DB0
:104980004120412341264129412C412F41324135CB
:104990004139413C413F41424145414B414E4151EA
:1049A00041544158415B415E416141644167416A04
:1049B000416D417041734177417A417D4183418628
:1049C0004189418C418F419241964199419C419F3F
:1049D00041A241A541A841AB41AE41B141B541BB66
:1049E00041BE41C141C441C741CA41CD41D041D47A
:1049F00041D741DA41DD41E041E341E641E941EFA0
:104A000041F341F641F941FC41FF410242054208B0
:104A1000420B420E421242154218421B421E4221D4
:104A20004227422A422D423142344237423A423DE5
:104A30004240424342464249424C4250425342560F
:104A4000425C425F426242654268426B426F427220
:104A500042754278427B427E428142844287428A4A
:104A6000428E42944297429A429D42A042A342A65D
:104A700042A942AD42B042B342B642B942BC42BF83
:104A800042C242C842CC42CF42D242D542D842DB97
:104A900042DE42E142E442E742EB42EE42F142F4BE
:104AA00042F742FD420043034306430A430D4310CD
:104AB000431343164319431C431F432243254329F1
:104AC000432C432F43354338433B433E4341434408
:104AD0004348434B434E435143544357435A435D2A
:104AE00043604363436A436D437043734376437942
:104AF000437C437F438243864389438C438F439265
:104B000043954398439E43A143A543A843AB43AE7B
:104B100043B143B443B743BA43BD43C043C443C79F
:104B200043CA43CD43D343D643D943DC43DF43E3B6
:104B300043E643E943EC43EF43F243F543F843FBD9
:104B400043FE43024408440B440E441144144417EA
:104B5000441A441D442144244427442A442D44300B
:104B600044334436443C4440444344464449444C22
:104B7000444F445244554458445B445F4462446546
:104B80004468446B447144744477447A447E44815D
:104B900044844487448A448D449044934496449981
:104BA000449D44A044A644A944AC44AF44B244B597
:104BB00044B844BC44BF44C244C544C844CB44CEBA
:104BC00044D144D444DB44DE44E144E444E744EAD1
:104BD00044ED44F044F344F644FA44FD44004503F4
:104BE00045064509450F451245154519451C451F04
:104BF000452245254528452B452E45314534453828
:104C0000453B453E45444547454A454D455045533E
:104C10004557455A455D4560456345664569456C60
:104C2000456F45724579457C457F45824585458878
:104C3000458B458E459145954598459B459E45A19B
:104C400045A445AA45AD45B045B445B745BA45BDAF
:104C500045C045C345C645C945CC45CF45D345D6D6
:104C600045D945DF45E245E545E845EB45EE45F2EA
:104C700045F545F845FB45FE450146044607460A0D
:104C8000460D46144617461A461D4620462346261C
:104C90004629462C4630463346364639463C463F42
:104CA00046454648464B464F465246554658465B53
:104CB000465E466146644667466A466E467146747D
:104CC000467A467D4680468346864689468D46908E
:104CD000469346964699469C469F46A246A546A8B8
:104CE00046AF46B246B546B846BB46BE46C146C4C8
:104CF00046C746CB46CE46D146D446D746DA46E0EE
:104D000046E346E646EA46ED46F046F346F646F901
:104D100046FC46FF460247054709470C470F471523
:104D20004718471B471E472147244728472B472E34
:104D3000473147344737473A473D47404747474A57
:104D4000474D4750475347564759475C475F47626F
:104D500047664769476C476F47724778477B477E8E
:104D6000478147854788478B478E479147944797A8
:104D7000479A479D47A047A447A747AD47B047B3C9
:104D800047B647B947BC47BF47C347C647C947CCE3
:104D900047CF47D247D547D847DE47E247E547E800
:104DA00047EB47EE47F147F447F747FA47FD47011E
:104DB00048044807480A4810481348164819481C30
:104DC0004820482348264829482C482F483248354F
:104DD0004838483B484248454848484B484E485167
:104DE00048544857485A485E486148644867486A8A
:104DF000486D487048764879487D488048834886A1
:104E00004889488C488F489248954898489C489FC4
:104E100048A248A848AB48AE48B148B448B748BBD8
:104E200048BE48C148C448C748CA48CD48D048D3FE
:104E300048DA48DD48E048E348E648E948EC48EF0E
:104E400048F248F548F948FC48FF48024905490B33
:104E5000490E491149144918491B491E4921492441
:104E60004927492A492D493049334937493D494065
:104E7000494349464949494C494F4952495649597C
:104E8000495C495F496249654968496E497149759C
:104E90004978497B497E498149844987498A498DB6
:104EA000499049944997499A49A049A349A649A9D3
:104EB00049AC49AF49B349B649B949BC49BF49C2F0
:104EC00049C549C849CB49D249D549D849DB49DE0A
:104ED00049E149E449E749EA49ED49F149F449F72B
:104EE00049FA49FD49034A064A094A0C4A104A133D
:104EF0004A164A194A1C4A1F4A224A254A284A2B5E
:104F00004A2F4A354A384A3B4A3E4A414A444A4770
:104F10004A4A4A4E4A514A544A574A5A4A5D4A6393
:104F20004A664A694A6D4A704A734A764A794A7CA7
:104F30004A7F4A824A854A884A8C4A8F4A954A98CB
:104F40004A9B4A9E4AA14AA44AA74AAB4AAE4AB1E2
:104F50004AB44AB74ABA4ABD4AC04AC64ACA4ACD02
:104F60004AD04AD34AD64AD94ADC4ADF4AE24AE51D
:104F70004AE94AEC4AEF4AF24AF84AFB4AFE4A0139
:104F80004B044B084B0B4B0E4B114B144B174B1A4E
:104F90004B1D4B204B274B2A4B2D4B304B334B3665
:104FA0004B394B3C4B3F4B424B464B494B4C4B4F89
:104FB0004B524B584B5B4B5E4B614B654B684B6B9D
:104FC0004B6E4B714B744B774B7A4B7D4B804B87C1
:104FD0004B8A4B8D4B904B934B964B994B9C4B9FD5
:104FE0004BA34BA64BA94BAC4BAF4BB24BB84BBBF7
:104FF0004BBE4BC24BC54BC84BCB4BCE4BD14BD40E
:105000004BD74BDA4BDD4BE14BE44BEA4BED4BF02E
:105010004BF34BF64BF94BFC4B004C034C064C0945
:105020004C0C4C0F4C124C184C1B4C1F4C224C255A
:105030004C284C2B4C2E4C314C344C374C3A4C3E7B
:105040004C414C474C4A4C4D4C504C534C564C598F
:105050004C5D4C604C634C664C694C6C4C6F4C72B4
:105060004C784C7C4C7F4C824C854C884C8B4C8EC5
:105070004C914C944C974C9B4C9E4CA14CA74CAAE9
:105080004CAD4CB04CB34CB64CBA4CBD4CC04CC300
:105090004CC64CC94CCC4CCF4CD24CD94CDC4CDF20
:1050A0004CE24CE54CE84CEB4CEE4CF14CF44CF83B
:1050B0004CFB4CFE4C014D074D0A4D0D4D104D1350
:1050C0004D174D1A4D1D4D204D234D264D294D2C6C
:1050D0004D2F4D364D394D3C4D3F4D424D454D4880
:1050E0004D4B4D4E4D514D554D584D5B4D5E4D61A7
:1050F0004D674D6A4D6D4D704D744D774D7A4D7DB8
:105100004D804D834D864D894D8C4D8F4D964D99DB
:105110004D9C4D9F4DA24DA54DA84DAB4DAE4DB2F2
:105120004DB54DB84DBB4DBE4DC44DC74DCA4DCD0F
:105130004DD14DD44DD74DDA4DDD4DE04DE34DE62B
:105140004DE94DEC4DF34DF64DF94DFC4DFF4D0243
:105150004E054E084E0B4E0F4E124E154E184E1B5E
:105160004E214E244E274E2A4E2E4E314E344E376F
:105170004E3A4E3D4E404E434E464E494E504E5393
:105180004E564E594E5C4E5F4E624E654E684E6CAA
:105190004E6F4E724E754E784E7E4E814E844E87C7
:1051A0004E8B4E8E4E914E944E974E9A4E9D4EA0E3
:1051B0004EA34EA64EAD4EB04EB34EB64EB94EBCFB
:1051C0004EBF4EC24EC54EC94ECC4ECF4ED24ED51E
:1051D0004EDB4EDE4EE14EE44EE84EEB4EEE4EF12F
:1051E0004EF44EF74EFA4EFD4E004F034F0A4F0D50
:1051F0004F104F134F164F194F1C4F1F4F224F2662
:105200004F294F2C4F2F4F324F384F3B4F3E4F417E
:105210004F454F484F4B4F4E4F514F544F574F5A9A
:105220004F5D4F604F674F6A4F6D4F704F734F76B2
:105230004F794F7C4F7F4F834F864F894F8C4F8FD5
:105240004F954F984F9B4F9E4FA24FA54FA84FABE6
:105250004FAE4FB14FB44FB74FBA4FBD4FC44FC70A
:105260004FCA4FCD4FD04FD34FD64FD94FDC4FE021
:105270004FE34FE64FE94FEC4FF24FF54FF84FFB3E
:105280004FFF4F0250055008500B500E5011501454
:10529000500011241FBECFEFCDBFDFE3DEBF00E023
:1052A0000CBF18BE19BE1ABE1BBE11E2A0E0B0E2D0
:1052B000E2E7F4E601E00BBF02C007900D92AC37C5
:1052C000B107D9F71BBE27E2ACE7B1E201C01D92DE
:1052D000AB3DB207E1F70E94B0AC0C9415B20C9450
:1052E0000000CF93DF931F92CDB7DEB7898389810A
:1052F000882F90E08230910589F0833091051CF46D
:10530000019739F01AC08430910569F0089781F04F
:1053100014C080E894E8AEE1B0E012C080E09CE602
:10532000ACEDB2E00DC080E090E8A0E0B0E008C0D5
:1053300080E094E2A4EFB0E003C080E090E0DC0104
:10534000BC01CD010F90DF91CF910895CF93DF93F2
:10535000CDB7DEB72997CDBFDEBF8D836E837F8348
:10536000488759878D81882F90E08038910579F0A2
:10537000803C9105A9F0892B09F01BC080E894E8D6
:10538000AEE1B0E089839A83AB83BC8312C080E036
:105390009BE1A7EBB0E089839A83AB83BC8309C010
:1053A00088E09FDFDC01CB0189839A83AB83BC83D8
:1053B00000008E819F81CC01A0E0B0E029813A817C
:1053C0004B815C81BC01CD010E945FAFDC01CB0150
:1053D00089839A83AB83BC8389819A81AB81BC81A9
:1053E000BC01CD012996CDBFDEBFDF91CF910895DD
:1053F000CF93DF93CDB7DEB741E050E062E070E0DD
:1054000080ECA4DFDC01CB01BC01CD01DF91CF91A9
:105410000895CF93DF931F92CDB7DEB71982E8DFEF
:10542000DC01CB012981222F30E004C0B695A7957D
:10543000979587952A95D2F7BC01CD010F90DF9102
:10544000CF910895CF93DF93CDB7DEB7E2DFDC01D4
:10545000CB01BC01CD01DF91CF910895CF93DF93B4
:10546000CDB7DEB7EFDFDC01CB01BC01CD01DF91B1
:10547000CF910895CF93DF93CDB7DEB72D97CDBFF2
:10548000DEBF888799874A875B876C877D87E6DFE1
:10549000DC01CB018A839B83AC83BD838A819B81A2
:1054A000AC81BD812A853B854C855D85BC01CD01E4
:1054B0000E9482AFDA01C9018E839F838E819F8112
:1054C000059710F419822FC08E819F81099718F4D7
:1054D00081E0898328C08E819F81419718F482E002
:1054E000898321C08E819F81819718F483E089830D
:1054F0001AC08E819F818134910518F484E08983DC
:1055000012C08E819F818138910518F485E08983CE
:105510000AC08E819F818130914018F486E0898392
:1055200002C087E08983888599852981FC012483CD
:1055300000002D96CDBFDEBFDF91CF910895CF93B0
:10554000DF93CDB7DEB72597CDBFDEBF89839A83C2
:105550006B834C832D8389819A81FC018181282F63
:10556000297E89819A81FC01218389819A81FC01AC
:1055700091812C818B81822B292F282B89819A81E3
:10558000FC01218389819A81FC018281282F2F7857
:1055900089819A81FC01228389819A81FC0192810F
:1055A0008D81292F282B89819A81FC01228300007B
:1055B0002596CDBFDEBFDF91CF910895CF93DF93C6
:1055C000CDB7DEB72597CDBFDEBF89839A836B83C6
:1055D0004C832D838B81882F90E08230910511F1CF
:1055E000833091052CF4009771F00197B9F1A9C0AF
:1055F0008430910509F453C084309105D4F10597A6
:1056000009F476C09EC089819A81FC018181282F8E
:10561000277F89819A81FC01218389819A81FC01FC
:1056200013828FC089819A81FC018181282F277F75
:1056300089819A81FC0121838D81882F90E0880FD8
:10564000991F880F991F880F991F982F8C81892B7C
:10565000282F89819A81FC01238373C089819A81D3
:10566000FC018181282F286089819A81FC01218396
:1056700068C089819A81FC018181282F28608981F5
:105680009A81FC0121838C818150282F2295220F41
:10569000220F207C89819A81FC01238352C0898159
:1056A0009A81FC018181282F277F89819A81FC01C1
:1056B00021838C81882F90E001970024969587950F
:1056C0000794969587950794982F802D282F8D8184
:1056D000882F90E0880F991F880F991F880F991FB6
:1056E000822B8560282F89819A81FC01238329C020
:1056F00089819A81FC018181282F277F89819A8164
:10570000FC0121838C81882F90E0019700249695DD
:1057100087950794969587950794982F802D282F25
:105720008D81882F90E0880F991F880F991F880F0F
:10573000991F822B8660282F89819A81FC012383FF
:10574000000000002596CDBFDEBFDF91CF91089508
:10575000CF93DF931F92CDB7DEB789838981882FDE
:1057600090E08830910551F1893091057CF48130C9
:105770009105F1F0823091051CF4892BB9F028C015
:1057800082309105B9F00497B9F022C080329105BA
:10579000C9F0813291051CF4409791F019C0803412
:1057A000910591F08F3F910589F012C08CE111C0F5
:1057B00080E00FC084E00DC088E00BC08CE009C021
:1057C00080E107C084E105C088E103C080E001C03A
:1057D00080E00F90DF91CF910895CF93DF93CDB705
:1057E000DEB72597CDBFDEBF89839A836B834C8359
:1057F0002D838B81803178F089819A81FC01108220
:105800008B818051282F220F220F220F89819A81AC
:10581000FC01218387C08C818A3079F489819A8147
:1058200021E0FC0120838B81282F220F220F220FE1
:1058300089819A81FC01218375C08C818430B8F400
:1058400089819A8122E0FC0120838B81882F90E05E
:10585000880F991F880F991F880F991F982F8C8187
:10586000892B282F89819A81FC0121835BC08C813F
:105870008830D8F48D816CDF282F236089819A814C
:10588000FC0120838B81882F90E0880F991F880F5F
:10589000991F880F991F982F8C818450892B282F4E
:1058A00089819A81FC0121833DC08D818130E1F4A1
:1058B00089819A8122E0FC0120838B81882F90E0EE
:1058C000880F991F880F991F880F991F982F8C8117
:1058D000883011F485E001C087E0892B282F898169
:1058E0009A81FC0121831EC08D8132DF282F236025
:1058F00089819A81FC0120838B81882F90E0880F19
:10590000991F880F991F880F991F982F8C818930B4
:1059100011F484E001C087E0892B282F89819A81C6
:10592000FC01218300002596CDBFDEBFDF91CF9122
:105930000895CF93DF93CDB7DEB72B97CDBFDEBFF2
:10594000CE010196BC0180E092E00E94EF8ECE0174
:105950000896AC0162E080E092E00E94B88F20E2FD
:1059600040E060E0CE010196EADD20E044E063E043
:10597000CE01019623DE44E254EF60E070E0CE01F8
:10598000019678DDCE010196BC0180E092E00E9494
:10599000758ECE01089621E04AE060E01EDFCE0160
:1059A0000896AC0161E080E092E00E94418FCE0158
:1059B000089621E04AE061E010DFCE010896AC01D4
:1059C00062E080E092E00E94418FCE01089621E0E3
:1059D0004AE066E002DFCE010896AC0164E080E0B8
:1059E00092E00E94418FCE01089621E04AE067E0F4
:1059F000F4DECE010896AC0168E080E092E00E94FF
:105A0000418F80E092E00E94EF7F00002B96CDBF97
:105A1000DEBFDF91CF910895CF93DF93CDB7DEB78F
:105A200082E00E94EE560000DF91CF910895EF9240
:105A3000FF920F931F93CF93DF93CDB7DEB72A97D3
:105A4000CDBFDEBF69837A838B839C834D835E8366
:105A50000F83188729873A872F81388549855A858A
:105A60006D817E8189819A81AB81BC8179018A01B6
:105A70009B01AC01BD0182E00E94535700002A96B1
:105A8000CDBFDEBFDF91CF911F910F91FF90EF90BF
:105A90000895EF92FF920F931F93CF93DF93CDB7AB
:105AA000DEB72A97CDBFDEBF69837A838B839C8361
:105AB0004D835E830F83188729873A872F81388526
:105AC00049855A856D817E8189819A81AB81BC81AE
:105AD00079018A019B01AC01BD0182E00E9401575E
